:100000000C9436010C9467010C9467010C94670101
:100010000C9467010C9467010C9467010C946701C0
:100020000C9467010C9467010C9467010C946701B0
:100030000C9467010C94FF030C9467010C94670106
:100040000C9467010C9467010C9467010C94670190
:100050000C9467010C9467010C9467010C94FE04E6
:100060000C9467010C94C8040C949E040C946701D2
:100070000C9467010C9467010C9467010C94670160
:100080000C9467010C9467010C9467010C94670150
:100090000C9467010C9467010C9467010C94670140
:1000A0000C9467010C9467010C9467010C94670130
:1000B0000C9467010C9467010C9467010C94670120
:1000C0000C9467010C9467010C9467010C94670110
:1000D0000C9467010C9467010C9467010C94670100
:1000E0000C9467010C9400030C94E8020C94E00259
:1000F0000C94D6020C9469010C9444080C94B90138
:100100000C94DA020C94BB020C94EE020C944C0298
:100110000C94F6020C94F2020C94FF010C94C502AC
:100120000C94C1020C94C7010C94FC020C94E402E0
:100130000C94CD020C94FB020C94A5010C94C90202
:100140000C9496010C94D00200002100240027009A
:100150002A002D00300033000101000004010701D6
:100160000A01000020002300260029002C002F0097
:1001700032000001000003010601090100000A0B22
:1001800002090C0D0E080703040100000000000026
:10019000000000000000000000000000000000005F
:1001A000000000000000000012111000000000001C
:1001B000000000000000000000000000000000003F
:1001C000000001021020200808102040102040806C
:1001D000020102010804020101020408102040800B
:1001E0008040201008040201800402018040201099
:1001F00008040201080402010102040810204080E2
:100200000102040810204080000022002500280080
:100210002B002E003100340002010000050108010E
:100220000B0105050505070508080808020202027A
:100230000A0A080804040404010101010101010182
:100240000303030303030303040707070C0C0C0C4D
:100250000C0C0C0C02020202060606060606060636
:100260000B0B0B0B0B0B0B0B0200440811241FBED6
:10027000CFEFD1E2DEBFCDBF00E00CBF12E0A0E0C7
:10028000B2E0E6EFF0E100E00BBF02C007900D9294
:10029000AC34B107D9F723E0ACE4B2E001C01D9261
:1002A000A231B207E1F711E0C6E3D1E000E006C0F9
:1002B00021970109802FFE010E947108C533D107E3
:1002C00080E00807A9F70E9448050C9479080C946F
:1002D0000000AF92BF92CF92DF92EF92FF920F9306
:1002E0001F93CF93DF936C017B018B01040F151FCC
:1002F000EB015E01AE18BF08C017D10759F0699134
:10030000D601ED91FC910190F081E02DC601199587
:10031000892B79F7C501DF91CF911F910F91FF9044
:10032000EF90DF90CF90BF90AF900895FC01538D78
:10033000448D252F30E0842F90E0821B930B5417BF
:1003400010F0CF96089501970895FC01918D828D4C
:10035000981761F0A28DAE0FBF2FB11D5D968C91E5
:10036000928D9F5F9F73928F90E008958FEF9FEF24
:100370000895FC01918D828D981731F0828DE80FE0
:10038000F11D858D90E008958FEF9FEF0895FC019A
:10039000918D228D892F90E0805C9F4F821B910967
:1003A0008F739927089585E792E00E94C70121E0A5
:1003B000892B09F420E0822F0895FC01A48DA80F59
:1003C000B92FB11DA35ABF4F2C91848D90E0019697
:1003D0008F739927848FA689B7892C93A089B189B7
:1003E0008C91837080648C93938D848D981306C058
:1003F0000288F389E02D80818F7D80830895EF92BC
:10040000FF920F931F93CF93DF93EC0181E0888FCE
:100410009B8D8C8D98131AC0E889F989808185FF9E
:1004200015C09FB7F894EE89FF896083E889F98940
:1004300080818370806480839FBF81E090E0DF9142
:10044000CF911F910F91FF90EF900895F62E0B8D95
:1004500010E00F5F1F4F0F731127E02E8C8D8E1150
:100460000CC00FB607FCFACFE889F989808185FFB7
:10047000F5CFCE010E94DD01F1CFEB8DEC0FFD2F0A
:10048000F11DE35AFF4FF0829FB7F8940B8FEA8972
:10049000FB8980818062CFCFCF93DF93EC01888D81
:1004A0008823B9F0AA89BB89E889F9898C9185FDEF
:1004B00003C0808186FD0DC00FB607FCF7CF8C917D
:1004C00085FFF2CF808185FFEDCFCE010E94DD0157
:1004D000E9CFDF91CF91089580E090E0892B29F05A
:1004E0000E94D30181110E94000080E090E0892BDE
:1004F00049F080E090E0892B29F00E9400008111F2
:100500000E94000080E090E0892B49F080E090E0BC
:10051000892B29F00E94000081110E94000080E0D8
:1005200090E0892B49F080E090E0892B29F00E942F
:10053000000081110C94000008958150823108F070
:100540005AC0E82FF0E08827E755FD4F8F4F0C94F5
:100550007108C902CD02BB02C102C502FB02D00272
:10056000D602DA02E002E402E802EE02F202FB0244
:10057000F602FC020003809180008F778093800058
:100580000895809180008F7DF9CF80918000877FD2
:10059000F5CF84B58F7784BD089584B58F7DFBCF6B
:1005A0008091B0008F778093B00008958091B00063
:1005B0008F7DF9CF809190008F7780939000089580
:1005C000809190008F7DF9CF80919000877FF5CF4B
:1005D0008091A0008F778093A00008958091A00063
:1005E0008F7DF9CF8091A000877FF5CF809120018A
:1005F0008F77809320010895809120018F7DF9CF1E
:1006000080912001877FF5CF1F93CF93DF93282F11
:1006100030E0F901E458FE4F8491F901EE53FE4FAA
:10062000D491F901EE5DFD4FC491CC23A9F0162FB2
:1006300081110E949D02EC2FF0E0EE0FFF1FE85F9A
:10064000FD4FA591B4918FB7F894EC91111108C0AA
:10065000D095DE23DC938FBFDF91CF911F9108955A
:10066000DE2BF8CFCF93DF9390E0FC01EE53FE4FEB
:1006700024918E5D9D4FFC0184918823D1F090E000
:10068000880F991FFC01E85BFE4FA591B491FC0116
:10069000E85FFD4FC591D49161110EC09FB7F894EA
:1006A0008C91E22FE0958E238C932881E223E883BE
:1006B0009FBFDF91CF9108958FB7F894EC91E22B13
:1006C000EC938FBFF6CF3FB7F89480915102909191
:1006D0005202A0915302B091540226B5A89B05C0C6
:1006E0002F3F19F00196A11DB11D3FBFBA2FA92FB1
:1006F000982F8827BC01CD01620F711D811D911DAE
:1007000042E0660F771F881F991F4A95D1F7089519
:100710008F929F92AF92BF92CF92DF92EF92FF9211
:100720004B015C010E9463036B017C010E94630327
:100730006C197D098E099F09683E734081059105FA
:10074000A8F321E0821A9108A108B10888EEC80E2A
:1007500083E0D81EE11CF11C81149104A104B104B2
:1007600029F7FF90EF90DF90CF90BF90AF909F90D0
:100770008F900895CF93DF93FC0101900020E9F75B
:100780003197AF01481B590BBC0185E792E00E94ED
:100790006901EC0142E050E063E172E085E792E03C
:1007A0000E9469018C0F9D1FDF91CF91089560E039
:1007B00082E00E94040360E083E00E94040360E0A2
:1007C00084E00E94040360E085E00E94040386E167
:1007D00092E00C94BA0361E082E00E94040360E0BE
:1007E00083E00E94040361E084E00E94040360E06F
:1007F00085E00E9404038BE192E00C94BA031F92FF
:100800000F920FB60F9211240BB60F922F933F93B6
:100810004F935F936F937F938F939F93AF93BF9308
:10082000EF93FF938091690290916A02A0916B020D
:10083000B0916C02892B8A2B8B2BE1F1909158029D
:10084000E0915902F0915A0280818927808380913A
:10085000690290916A02A0916B02B0916C02181625
:1008600019061A061B069CF48091690290916A028F
:10087000A0916B02B0916C020197A109B10980931C
:10088000690290936A02A0936B02B0936C02FF918D
:10089000EF91BF91AF919F918F917F916F915F91F8
:1008A0004F913F912F910F900BBE0F900FBE0F9065
:1008B0001F90189580910002E8E6F2E0E4919FEF26
:1008C00090930002E230E9F040F4EE2389F0E13049
:1008D00091F060E00E940403DACFE43049F110F1B6
:1008E000E530B9F7909173009D7F90937300F1CF3D
:1008F00010926E00EECF90916F009D7F90936F00ED
:10090000E8CF909170009D7F9093700091E090935C
:10091000B0009091B100987F94609093B1001092D4
:10092000B300D7CF909171009D7F90937100D1CF8C
:10093000909172009D7F90937200CBCF1F920F9287
:100940000FB60F9211240BB60F922F933F934F9334
:100950005F936F937F938F939F93AF93BF93EF9327
:10096000FF9385E792E00E94DD01FF91EF91BF9137
:10097000AF919F918F917F916F915F914F913F9137
:100980002F910F900BBE0F900FBE0F901F901895D8
:100990001F920F920FB60F9211240BB60F922F9346
:1009A0008F939F93EF93FF93E0918502F0918602DE
:1009B0008081E0918B02F0918C0282FD1DC09081BC
:1009C00080918E028F5F8F7320918F02821741F08A
:1009D000E0918E02F0E0EB58FD4F958F80938E02F0
:1009E000FF91EF919F918F912F910F900BBE0F90E0
:1009F0000FBE0F901F9018958081F2CF1F920F921B
:100A00000FB60F9211242F933F938F939F93AF9321
:100A1000BF9380914D0290914E02A0914F02B091F0
:100A2000500230914C0223E0230F2D3758F50196E8
:100A3000A11DB11D20934C0280934D0290934E0254
:100A4000A0934F02B09350028091510290915202B4
:100A5000A0915302B09154020196A11DB11D809343
:100A6000510290935202A0935302B0935402BF914B
:100A7000AF919F918F913F912F910F900FBE0F904B
:100A80001F90189526E8230F0296A11DB11DD2CF05
:100A9000789484B5826084BD84B5816084BD85B559
:100AA000826085BD85B5816085BD80916E00816065
:100AB00080936E001092810080918100826080930B
:100AC000810080918100816080938100809180000D
:100AD0008160809380008091B10084608093B10038
:100AE0008091B00081608093B0008091910082601D
:100AF000809391008091910081608093910080911A
:100B000090008160809390008091A100826080932A
:100B1000A1008091A10081608093A1008091A0003C
:100B200081608093A00080912101826080932101E7
:100B30008091210181608093210180912001816059
:100B40008093200180917A00846080937A00809164
:100B50007A00826080937A0080917A00816080932D
:100B60007A0080917A00806880937A001092C100A8
:100B700061E082E00E94320361E083E00E94320380
:100B800061E084E00E94320361E085E00E9432036C
:100B900060E086E00E943203E0918502F0918602D7
:100BA00082E08083E0918102F09182021082E091E4
:100BB0008302F09184028FEC808310928D02E09189
:100BC0008902F0918A0286E08083E0918702F091A9
:100BD0008802808180618083E0918702F0918802A1
:100BE000808188608083E0918702F0918802808113
:100BF00080688083E0918702F091880280818F7DF8
:100C0000808372E8672E71E0772EE8ECAE2EE1E08B
:100C1000BE2EF8E28F2EF2E09F2EAFE3EA2EAFE178
:100C2000FA2EB8E6CB2EB2E0DB2EC1E32C2EC2E0CA
:100C30003C2E01ED11E0F3018491F5015490F40193
:100C40004490442009F41DC281110E949D02E42DAC
:100C5000F0E0EE0FFF1FEE59FE4FA591B4918C917D
:100C6000582209F40EC2809100028F3049F5F60136
:100C7000C491C7FD90C161E08FE00E943203CC2394
:100C800009F4EEC0C23009F003C18091B100887F41
:100C900083608093B10089EF8093B30080ED97E08B
:100CA000A0E0B0E08093690290936A02A0936B0287
:100CB000B0936C02809170008260809370006BC171
:100CC0008F3F09F068C18FE080930002F601C49164
:100CD0008C2FCF3F09F45FC1C23009F465C060F4C6
:100CE000CC2371F1C13009F442C087FD54C161E0E9
:100CF0008FE00E943203C6CFC43009F494C008F4D8
:100D000074C0C53091F7109220011092210180919A
:100D1000210188608093210180912101816080936D
:100D20002101F1018491E82FF0E0EE0FFF1FE85F51
:100D3000FD4F85919491F8018491809355029BCF4A
:100D400014BC15BC84B5826084BD85B5816085BD49
:100D5000F1018491E82FF0E0EE0FFF1FE85FFD4FF7
:100D600085919491F801849180935C0284CF1092D4
:100D700080001092810080918100886080938100C2
:100D800080918100816080938100F1018491E82F3E
:100D9000F0E0EE0FFF1FE85FFD4F85919491F801A1
:100DA000849180935B0267CF1092B0001092B100E3
:100DB0008091B00082608093B0008091B10081602A
:100DC0008093B100F1018491E82FF0E0EE0FFF1F56
:100DD000E85FFD4F8591949190935A028093590258
:100DE000F80184918093580246CF1092900010929F
:100DF0009100809191008860809391008091910092
:100E0000816080939100F1018491E82FF0E0EE0F72
:100E1000FF1FE85FFD4F85919491F80184918093C5
:100E20005702C3E028CF1092A0001092A100809139
:100E3000A10088608093A1008091A10081608093CF
:100E4000A100F1018491E82FF0E0EE0FFF1FE85FB1
:100E5000FD4F85919491F8018491809356020BCFB8
:100E600085B5887F836085BD8CE787BD80ED97E081
:100E7000A0E0B0E08093710290937202A09373029D
:100E8000B093740280916E00826080936E0083C084
:100E9000C130E1F480918100887F8160809381007E
:100EA000F0928900E092880080ED97E0A0E0B0E049
:100EB00080936D0290936E02A0936F02B0937002C4
:100EC00080916F00826080936F0065C0C330E1F451
:100ED00080919100887F816080939100F0929900C9
:100EE000E092980080ED97E0A0E0B0E0809365028A
:100EF00090936602A0936702B0936802809171009C
:100F000082608093710047C0C430E1F48091A100F9
:100F1000887F81608093A100F092A900E092A800F0
:100F200080ED97E0A0E0B0E08093610290936202D0
:100F3000A0936302B09364028091720082608093F8
:100F4000720029C0C530E1F480912101887F816061
:100F500080932101F0922901E092280180ED97E031
:100F6000A0E0B0E080935D0290935E02A0935F02E8
:100F7000B0936002809173008260809373000BC015
:100F8000C23009F47CC00CF06FC0CC2309F475C0EA
:100F9000C13009F485CF0E94D70368EE73E080E08A
:100FA00090E00E94880361E082E00E94040360E018
:100FB00083E00E94040360E084E00E94040360E098
:100FC00085E00E9404038DE292E00E94BA0360ED86
:100FD00077E080E090E00E9488030E94D70368EEEB
:100FE00073E080E090E00E9488030E94EB0368EBCE
:100FF0007BE080E090E00E9488030E94D70368EEC7
:1010000073E080E090E00E94880360E082E00E944C
:10101000040360E083E00E94040361E084E00E9436
:10102000040360E085E00E9404038CE392E00E94E8
:10103000BA0368EE73E080E090E00E9488030E94AB
:10104000D70368EE73E080E090E00E9488030E947E
:10105000EB0368E873E180E090E00E9488030E945F
:10106000D7030E946C02E7CDC43009F455CF0CF4CD
:1010700035CFC53009F08FCF6DCF8FE3F6CE8FE33C
:101080000BCE0E94EB03EDCFE5E7F2E01382128274
:1010900088EE93E0A0E0B0E084839583A683B783D5
:1010A00085E092E09183808385EC90E0958784874A
:1010B00084EC90E09787868780EC90E0918B808B22
:1010C00081EC90E0938B828B82EC90E0958B848B0B
:1010D00086EC90E0978B868B118E128E138E148E79
:1010E0000895EE0FFF1F881F8BBF0790F691E02D2C
:0610F0001994F894FFCFF3
:1010F600FF00000000FF01690196014C02C701A52F
:1011060001B9010D0A0053746F7000466F72776162
:10111600726420446972656374696F6E004C65661B
:101126007420446972656374696F6E0052696768FA
:0C1136007420446972656374696F6E0078
:00000001FF
