:020000040000FA
:100000000C9462000C948A000C948A000C948A0070
:100010000C948A000C948A000C948A000C948A0038
:100020000C948A000C948A000C948A000C94B104FD
:100030000C948A000C948A000C948A000C948A0018
:100040000C940F040C948A000C947F040C945904B3
:100050000C948A000C948A000C948A000C948A00F8
:100060000C948A000C948A000000000024002700F1
:100070002A0000000000250028002B0000000000DE
:1000800023002600290004040404040404040202DA
:100090000202020203030303030301020408102007
:1000A0004080010204081020010204081020000012
:1000B0000008000201000003040700000000000027
:1000C00000006D0511241FBECFEFD8E0DEBFCDBF0D
:1000D00011E0A0E0B1E0E8EBF0E102C005900D9284
:1000E000AA34B107D9F722E0AAE4B1E001C01D9219
:1000F000A232B207E1F710E0C2E6D0E004C02197D7
:10010000FE010E945408C136D107C9F70E94E405D8
:100110000C945A080C940000833081F028F481304C
:1001200099F08230A9F008958730A9F08830C9F09D
:100130008430B1F4809180008F7D03C08091800075
:100140008F7780938000089584B58F7784BD08955C
:1001500084B58F7DFBCF8091B0008F778093B00006
:1001600008958091B0008F7DF9CFCF93DF93282F32
:1001700030E0F901E255FF4F8491F901E656FF4F57
:10018000D491F901EA57FF4FC491CC23A1F081111A
:100190000E948C00EC2FF0E0EE0FFF1FE458FF4FA1
:1001A000A591B491EC91ED2381E090E009F480E019
:1001B000DF91CF91089580E090E0FACF1F93CF9325
:1001C000DF93282F30E0F901E255FF4F8491F901C8
:1001D000E656FF4FD491F901EA57FF4FC491CC2363
:1001E000A9F0162F81110E948C00EC2FF0E0EE0F89
:1001F000FF1FEE58FF4FA591B4918FB7F894EC9183
:10020000111108C0D095DE23DC938FBFDF91CF9111
:100210001F910895DE2BF8CFCF93DF9390E0FC0180
:10022000E656FF4F24918A579F4FFC018491882303
:10023000D1F090E0880F991FFC01E859FF4FA5917C
:10024000B491FC01EE58FF4FC591D49161110EC0DD
:100250009FB7F8948C91E22FE0958E238C932881A0
:10026000E223E8839FBFDF91CF9108958FB7F89481
:10027000EC91E22BEC938FBFF6CFE82FF0E0E25544
:10028000FF4FE491E33011F138F4E130A9F0E230AE
:10029000C1F060E00C94DE00E73011F1E83041F18C
:1002A000E430B9F780918000806280938000709381
:1002B0008B0060938A00089584B5806884BD67BD13
:1002C000089584B5806284BD68BD089580918000E2
:1002D00080688093800070938900609388000895FF
:1002E0008091B00080688093B0006093B30008955F
:1002F0008091B00080628093B0006093B400089554
:100300003FB7F8948091560190915701A091580100
:10031000B091590126B5A89B05C02F3F19F0019651
:10032000A11DB11D3FBFBA2FA92F982F8827BC014F
:10033000CD01620F711D811D911D42E0660F771F77
:10034000881F991F4A95D1F708958F929F92AF9277
:10035000BF92CF92DF92EF92FF920E9480014B01F9
:100360005C0184E6C82ED12CE12CF12C0E94800186
:10037000681979098A099B09683E734081059105CE
:10038000A8F321E0C21AD108E108F10888EE880E2E
:1003900083E0981EA11CB11CC114D104E104F10436
:1003A00029F7FF90EF90DF90CF90BF90AF909F9094
:1003B0008F900895AF92BF92CF92DF92EF92FF920B
:1003C0000F931F93CF93DF936C017B018B01040F7D
:1003D000151FEB015E01AE18BF08C017D10759F019
:1003E0006991D601ED91FC910190F081E02DC6015B
:1003F0000995892B79F7C501DF91CF911F910F9155
:10040000FF90EF90DF90CF90BF90AF900895FC01E8
:10041000538D448D252F30E0842F90E0821B930B69
:10042000541710F0CF96089501970895FC01918D0F
:10043000828D981761F0A28DAE0FBF2FB11D5D9612
:100440008C91928D9F5F9F73928F90E008958FEFB4
:100450009FEF0895FC01918D828D981731F0828D68
:10046000E80FF11D858D90E008958FEF9FEF0895BF
:10047000FC01918D228D892F90E0805C9F4F821B23
:1004800091098F73992708958AE591E00E943802B7
:1004900021E0892B09F420E0822F089580E090E08C
:1004A000892B29F00E94440281110C9400000895C8
:1004B000FC01A48DA80FB92FB11DA35ABF4F2C91D9
:1004C000848D90E001968F739927848FA689B789D0
:1004D0002C93A089B1898C91837080648C93938DC7
:1004E000848D981306C00288F389E02D80818F7D6A
:1004F00080830895EF92FF920F931F93CF93DF9322
:10050000EC0181E0888F9B8D8C8D98131AC0E8894F
:10051000F989808185FF15C09FB7F894EE89FF891E
:100520006083E889F98980818370806480839FBFBC
:1005300081E090E0DF91CF911F910F91FF90EF90BC
:100540000895F62E0B8D10E00F5F1F4F0F731127CC
:10055000E02E8C8D8E110CC00FB607FCFACFE88907
:10056000F989808185FFF5CFCE010E945802F1CF35
:10057000EB8DEC0FFD2FF11DE35AFF4FF0829FB77B
:10058000F8940B8FEA89FB8980818062CFCFCF936B
:10059000DF93EC01888D8823B9F0AA89BB89E889AB
:1005A000F9898C9185FD03C0808186FD0DC00FB651
:1005B00007FCF7CF8C9185FFF2CF808185FFEDCFCF
:1005C000CE010E945802E9CFDF91CF9108958F921A
:1005D0009F92AF92BF92FF920F931F93CF93DF939F
:1005E000FC016F3F760709F45EC0653B710511F4AD
:1005F00064EB70E0F0808BE08F1508F44AC08281D4
:1006000008E512E0081B110987FD1395000F111F63
:10061000000F111F8181C8E8D0E0C81BD10987FDF8
:10062000D395CC0FDD1FCC0FDD1F4E010D2E000C1E
:10063000AA08BB089801012E000C440B550B281981
:1006400039094A095B09DB010E940F0824EB30E0FD
:1006500040E050E00E94E507820E931EA41EB51EE6
:100660008C169D062CF0E801801691060CF4E4012E
:100670002297CC0FDD1F2FB7F8948F2D90E0FC014F
:10068000EE0FFF1FE80FF91FE950FE4FD283C18321
:100690002FBFDF91CF911F910F91FF90BF90AF902F
:1006A0009F908F90089570E060E0A4CF1F93CF9348
:1006B000DF93EC01162F88818C3008F04EC061E08A
:1006C000812F0E940C018881282F30E0F901EE0F64
:1006D000FF1FE20FF31FE950FE4F1F736081607C24
:1006E000612B608319821A822CE0622F0E944808D5
:1006F000829FB001112430E020E0AB01420F531F74
:10070000FA01EE0FFF1FE40FF51FE950FE4F908135
:1007100096FD16C02F5F3F4F2C30310571F78111C8
:100720000FC01092800082E08093810010928500BB
:1007300010928400B19A80916F00826080936F0064
:10074000E8818E2F90E0FC01EE0FFF1FE80FF91FEC
:10075000E950FE4F8081806480838881DF91CF9152
:100760001F910895FC0101900020E9F73197AF0136
:10077000481B590BBC018AE591E00C94DA01CF9338
:10078000DF930E94B203EC0182E191E00E94B20388
:100790008C0F9D1FDF91CF91089561E08EE00E9444
:1007A0000C0160E08EE00E94DE0061E083E10E94C7
:1007B0000C0160E083E10E94DE0060E08FE00E94B7
:1007C000DE0060E080E10E94DE0060E081E10E94E6
:1007D000DE0060E082E10C94DE0061E08EE00E94C9
:1007E0000C0164E670E08EE00E943D0161E083E16F
:1007F0000E940C0164E670E083E10E943D0161E02B
:100800008FE00E94DE0060E080E10E94DE0061E097
:1008100081E10E94DE0060E082E10C94DE001F9224
:100820000F920FB60F9211242F933F938F939F93A4
:10083000AF93BF938091520190915301A0915401C5
:10084000B09155013091510123E0230F2D3758F518
:100850000196A11DB11D20935101809352019093E7
:100860005301A0935401B09355018091560190918A
:100870005701A0915801B09159010196A11DB11DD8
:100880008093560190935701A0935801B09359015A
:10089000BF91AF919F918F913F912F910F900FBE7C
:1008A0000F901F90189526E8230F0296A11DB11DE9
:1008B000D2CF1F920F920FB60F9211242F933F9316
:1008C0004F935F936F937F938F939F93AF93BF9358
:1008D000EF93FF938AE591E00E945802FF91EF9118
:1008E000BF91AF919F918F917F916F915F914F9148
:1008F0003F912F910F900FBE0F901F9018951F9250
:100900000F920FB60F9211242F938F939F93EF9313
:10091000FF93E0916A01F0916B018081E091700199
:10092000F091710182FD1BC09081809173018F5FF6
:100930008F7320917401821741F0E0917301F0E010
:10094000E65AFE4F958F80937301FF91EF919F912F
:100950008F912F910F900FBE0F901F90189580814F
:10096000F4CF1F920F920FB60F9211242F933F9343
:100970004F935F936F937F938F939F93AF93BF93A7
:10098000CF93DF93EF93FF9380914A01C0911B02B5
:10099000D0E087FF24C010928500109284008091DF
:1009A0004A018F5F80934A0180914A01082E000C12
:1009B000990B8C179D0724F480914A018C30C4F167
:1009C0008091840090918500049680349C4908F4BD
:1009D0007AC08091840090918500049676C08091C1
:1009E0004A01082E000C990B8C179D07C4F6E09164
:1009F0004A018E2FEE0F990BFC01EE0FFF1FE80F3F
:100A0000F91FE950FE4F808186FFC9CFE0914A016E
:100A10008E2FEE0F990BFC01EE0FFF1FE80FF91F51
:100A2000E950FE4F808160E08F730E94DE00B7CFF7
:100A30002091840030918500E0914A018E2FEE0FC5
:100A4000990BFC01EE0FFF1FE80FF91FE950FE4F55
:100A500081819281820F931F9093890080938800F7
:100A6000E0914A018E2FEE0F990BFC01EE0FFF1F54
:100A7000E80FF91FE950FE4F808186FF11C0E09119
:100A80004A018E2FEE0F990BFC01EE0FFF1FE80FAE
:100A9000F91FE950FE4F808161E08F730E94DE00F4
:100AA000FF91EF91DF91CF91BF91AF919F918F9186
:100AB0007F916F915F914F913F912F910F900FBE5A
:100AC0000F901F90189580E49CE990938900809383
:100AD00088008FEF80934A01E3CF10925D0110925E
:100AE0005C0188EE93E0A0E0B0E080935E0190931B
:100AF0005F01A0936001B093610184E091E0909365
:100B00005B0180935A0185EC90E09093670180939C
:100B1000660184EC90E0909369018093680180EC19
:100B200090E090936B0180936A0181EC90E0909348
:100B30006D0180936C0182EC90E090936F01809343
:100B40006E0186EC90E09093710180937001109299
:100B500073011092740110927501109276018091C8
:100B60001B028C3048F591E0980F90931B02809304
:100B70001F0290E0FC01EE0FFF1FE80FF91FE95084
:100B8000FE4F88EB9BE09283818380911B028C3027
:100B9000B8F491E0980F90931B0280931C0290E0B0
:100BA000FC01EE0FFF1FE80FF91FE950FE4F88EB25
:100BB0009BE09283818308958FEF80931F02E5CF9E
:100BC0008FEF80931C020895789484B5826084BD71
:100BD00084B5816084BD85B5826085BD85B5816041
:100BE00085BD80916E00816080936E0010928100BF
:100BF000809181008260809381008091810081607A
:100C0000809381008091800081608093800080913A
:100C1000B10084608093B1008091B00081608093C6
:100C2000B00080917A00846080937A0080917A008D
:100C3000826080937A0080917A00816080937A004C
:100C400080917A00806880937A001092C10061E000
:100C50008FE00E940C0161E080E10E940C0161E0E4
:100C600081E10E940C0161E082E10E940C0161E0DF
:100C70008EE00E940C0161E083E10E940C0160E0C3
:100C800083E00E940C0160E084E00E940C0160E0BF
:100C900085E00E940C0160E086E00E940C0161E0AA
:100CA00087E00E940C0160E088E00E940C016AE08D
:100CB00070E08FE192E00E9456036BE070E08CE1FF
:100CC00092E00E9456036AE570E08FE192E00E9494
:100CD000E7026AE570E08CE192E00E94E702E091B1
:100CE0006A01F0916B0182E08083E0916601F091EE
:100CF00067011082E0916801F09169018FEC8083B7
:100D000010927201E0916E01F0916F0186E0808394
:100D1000E0916C01F0916D01808180618083E091B0
:100D20006C01F0916D01808188608083E0916C019D
:100D3000F0916D01808180688083E0916C01F09179
:100D40006D0180818F7D808300E010E083E00E9450
:100D5000B5007C0190934C0180934B0185E00E948B
:100D6000B500EC0190934E0180934D0184E00E9408
:100D7000B500E114F10409F047C0209709F05BC009
:100D8000009709F06BC085E191E00E94BF036AE51E
:100D900070E08FE192E00E94E7020E94ED0386E09E
:100DA0000E94B5007C019093500180934F0185E033
:100DB0000E94B500EC0190934E0180934D0184E0B8
:100DC0000E94B500E114F10409F091C0209709F0E8
:100DD000A6C0009709F0B6C085E191E00E94BF036C
:100DE0006AE570E08FE192E00E94E7020E94ED0365
:100DF0000115110509F4AACF0E944402882309F4C1
:100E0000A5CF0E940000A2CFEA94EF2841F62097D8
:100E1000A9F5009709F04FC00E94CD036AE570E084
:100E20008FE192E00E94E70287E291E00E94B20324
:100E30000E94A501B4CF219709F0B1CF892B09F009
:100E4000AECF0E94CD0370E060E08FE192E00E949F
:100E5000E7028FE291E00E94BF03A1CF019709F062
:100E60009ECF0E94CD0364EB70E08FE192E00E9480
:100E7000E7028FE291E00E94B20391CF219709F03F
:100E80008ECF892B09F08BCF8FE291E00E94BF03B8
:100E9000CAE5D0E0BE018FE192E00E94E70221970F
:100EA000C9F7BE018FE192E00E94E7022196CA35A0
:100EB000D105B9F774CF019709F071CF8FE291E0B6
:100EC0000E94BF03CAE5D0E0BE018FE192E00E941C
:100ED000E7022196C43BD105B9F7BE018FE192E04C
:100EE0000E94E7022197CA35D105B9F758CFEA9495
:100EF000EF2809F07DCF2097A9F5009709F048C0A9
:100F00000E94CD036AE570E08CE192E00E94E70266
:100F100088E391E00E94B2030E94A50169CF219766
:100F200009F066CF892B09F063CF0E94CD0364EBF3
:100F300070E08CE192E00E94E70281E491E00E947F
:100F4000BF0356CF019709F053CF0E94CD0370E045
:100F500060E08CE192E00E94E70281E491E00E946F
:100F6000B20346CF219709F043CF892B09F040CF38
:100F700081E491E00E94BF03CAE5D0E0BE018CE1AC
:100F800092E00E94E7022196C53BD105B9F730CF28
:100F9000019709F02DCF8FE291E00E94BF038AE50F
:100FA000E82EF12CB7018CE192E00E94E70281E08B
:100FB000E81AF108B8F7BE018CE192E00E94E7025E
:100FC0002196CB35D105B9F713CF052E97FB1EF42B
:100FD00000940E94FC0757FD07D00E94170807FCE9
:100FE00003D04EF40C94FC07509540953095219514
:100FF0003F4F4F4F5F4F0895909580957095619545
:101000007F4F8F4F9F4F08950E943908A59F900DE5
:10101000B49F900DA49F800D911D11240895B7FFDA
:101020000C9404080E940408821B930B0895A1E20B
:101030001A2EAA1BBB1BFD010DC0AA1FBB1FEE1F52
:10104000FF1FA217B307E407F50720F0A21BB30B9D
:10105000E40BF50B661F771F881F991F1A9469F719
:1010600060957095809590959B01AC01BD01CF0175
:101070000895A29FB001B39FC001A39F700D811D71
:101080001124911DB29F700D811D1124911D089591
:10109000991B79E004C0991F961708F0961B881FCA
:1010A0007A95C9F780950895EE0FFF1F0590F4918A
:1010B000E02D0994F894FFCF000000007A02DA01D5
:1010C0000702C702380216022A020D0A006E6F20BC
:1010D000666C616D6520646974656374656400465F
:1010E0006F72776172642070756D7031206F6E0061
:1010F0004261636B776172642070756D7032206F2E
:021100006E007F
:107E0000112484B714BE81FFF0D085E080938100F7
:107E100082E08093C00088E18093C10086E0809377
:107E2000C20080E18093C4008EE0C9D0259A86E02C
:107E300020E33CEF91E0309385002093840096BBD3
:107E4000B09BFECF1D9AA8958150A9F7CC24DD24C4
:107E500088248394B5E0AB2EA1E19A2EF3E0BF2EE7
:107E6000A2D0813461F49FD0082FAFD0023811F036
:107E7000013811F484E001C083E08DD089C08234E0
:107E800011F484E103C0853419F485E0A6D080C0E4
:107E9000853579F488D0E82EFF2485D0082F10E0AE
:107EA000102F00270E291F29000F111F8ED06801E7
:107EB0006FC0863521F484E090D080E0DECF843638
:107EC00009F040C070D06FD0082F6DD080E0C81688
:107ED00080E7D80618F4F601B7BEE895C0E0D1E017
:107EE00062D089930C17E1F7F0E0CF16F0E7DF06D8
:107EF00018F0F601B7BEE89568D007B600FCFDCFD4
:107F0000A601A0E0B1E02C9130E011968C91119780
:107F100090E0982F8827822B932B1296FA010C0160
:107F200087BEE89511244E5F5F4FF1E0A038BF0790
:107F300051F7F601A7BEE89507B600FCFDCF97BE46
:107F4000E89526C08437B1F42ED02DD0F82E2BD052
:107F50003CD0F601EF2C8F010F5F1F4F84911BD097
:107F6000EA94F801C1F70894C11CD11CFA94CF0C13
:107F7000D11C0EC0853739F428D08EE10CD085E9AC
:107F80000AD08FE07ACF813511F488E018D01DD067
:107F900080E101D065CF982F8091C00085FFFCCF94
:107FA0009093C60008958091C00087FFFCCF809118
:107FB000C00084FD01C0A8958091C6000895E0E648
:107FC000F0E098E1908380830895EDDF803219F02E
:107FD00088E0F5DFFFCF84E1DECF1F93182FE3DFCA
:107FE0001150E9F7F2DF1F91089580E0E8DFEE27F6
:047FF000FF270994CA
:027FFE00040479
:00000001FF
