:100000000C94E3000C9414010C9414010C9414014E
:100010000C9414010C9414010C9414010C9414010C
:100020000C9414010C9414010C9414010C941401FC
:100030000C9414010C9414010C9414010C941401EC
:100040000C9414010C9414010C9414010C941401DC
:100050000C9414010C9414010C9414010C94DC0203
:100060000C9414010C94A6020C947C020C941401C0
:100070000C9414010C9414010C9414010C941401AC
:100080000C9414010C9414010C9414010C9414019C
:100090000C9414010C9414010C9414010C9414018C
:1000A0000C9414010C9414010C9414010C9414017C
:1000B0000C9414010C9414010C9414010C9414016C
:1000C0000C9414010C9414010C9414010C9414015C
:1000D0000C9414010C9414010C9414010C9414014C
:1000E0000C9414010C94F9010C9443010C945201EA
:1000F0000C9481040C94AC010C9474010C941601C2
:100100000C94660100002200250028002B002E0020
:100110003100340002010000050108010B0100005C
:100120002100240027002A002D00300033000101A7
:100130000000040107010A01050505050705080877
:100140000808020202020A0A080804040404010161
:100150000101010101010303030303030303040776
:1001600007070C0C0C0C0C0C0C0C0202020206060D
:100170000606060606060B0B0B0B0B0B0B0B010200
:1001800010202008081020401020408002010201A9
:100190000804020101020408102040808040201061
:1001A00008040201800402018040201008040201BA
:1001B0000804020101020408102040800102040822
:1001C00010204080810411241FBECFEFD1E2DEBF9A
:1001D000CDBF00E00CBF12E0A0E0B2E0E4EBF9E03C
:1001E00000E00BBF02C007900D92A232B107D9F711
:1001F00022E0A2E2B2E001C01D92A83CB207E1F702
:1002000010E0C3EED0E000E006C021970109802F86
:10021000FE010E94D004C23ED10780E00807A9F782
:100220000E9426030C94D8040C940000AF92BF9255
:10023000CF92DF92EF92FF920F931F93CF93DF93B2
:100240006C017B018B01040F151FEB015E01AE18E1
:10025000BF08C017D10759F06991D601ED91FC9103
:100260000190F081E02DC6011995892B79F7C50120
:10027000DF91CF911F910F91FF90EF90DF90CF9082
:10028000BF90AF900895FC01538D448D252F30E031
:10029000842F90E0821B930B541710F0CF96089593
:1002A00001970895FC01918D828D981761F0A28DC0
:1002B000AE0FBF2FB11D5D968C91928D9F5F9F7386
:1002C000928F90E008958FEF9FEF0895FC01918D3C
:1002D000828D981731F0828DE80FF11D858D90E0A9
:1002E00008958FEF9FEF0895FC01918D228D892F46
:1002F00090E0805C9F4F821B91098F73992708952E
:100300008BE292E00E94740121E0892B09F420E045
:10031000822F0895FC01A48DA80FB92FB11DA35AF7
:10032000BF4F2C91848D90E001968F739927848F15
:10033000A689B7892C93A089B1898C918370806438
:100340008C93938D848D981306C00288F389E02DD9
:1003500080818F7D80830895EF92FF920F931F938A
:10036000CF93DF93EC0181E0888F9B8D8C8D981368
:100370001AC0E889F989808185FF15C09FB7F89474
:10038000EE89FF896083E889F989808183708064C0
:1003900080839FBF81E090E0DF91CF911F910F910B
:1003A000FF90EF900895F62E0B8D10E00F5F1F4F1A
:1003B0000F731127E02E8C8D8E110CC00FB607FC29
:1003C000FACFE889F989808185FFF5CFCE010E94B7
:1003D0008A01F1CFEB8DEC0FFD2FF11DE35AFF4F9A
:1003E000F0829FB7F8940B8FEA89FB898081806245
:1003F000CFCFCF93DF93EC01888D8823B9F0AA8902
:10040000BB89E889F9898C9185FD03C0808186FDCF
:100410000DC00FB607FCF7CF8C9185FFF2CF80811E
:1004200085FFEDCFCE010E948A01E9CFDF91CF9108
:10043000089580E090E0892B29F00E9480018111CD
:100440000E94000080E090E0892B49F080E090E07D
:10045000892B29F00E94000081110E94000080E099
:1004600090E0892B49F080E090E0892B29F00E94F0
:10047000000081110E94000080E090E0892B49F08B
:1004800080E090E0892B29F00E94000081110C94FB
:10049000000008953FB7F8948091270290912802B8
:1004A000A0912902B0912A0226B5A89B05C02F3F32
:1004B00019F00196A11DB11D3FBFBA2FA92F982F8A
:1004C0008827BC01CD01620F711D811D911D42E085
:1004D000660F771F881F991F4A95D1F70895FC0171
:1004E00001900020E9F73197AF01481B590BBC017F
:1004F0008BE292E00C9416011F920F920FB60F92AE
:1005000011240BB60F922F933F934F935F936F93EA
:100510007F938F939F93AF93BF93EF93FF938BE260
:1005200092E00E948A01FF91EF91BF91AF919F915C
:100530008F917F916F915F914F913F912F910F908C
:100540000BBE0F900FBE0F901F9018951F920F9229
:100550000FB60F9211240BB60F922F938F939F9388
:10056000EF93FF93E0913B02F0913C028081E09198
:100570004102F091420282FD1DC0908180914402AF
:100580008F5F8F7320914502821741F0E091440202
:10059000F0E0E55DFD4F958F80934402FF91EF9170
:1005A0009F918F912F910F900BBE0F900FBE0F90C8
:1005B0001F9018958081F2CF1F920F920FB60F9265
:1005C00011242F933F938F939F93AF93BF93809169
:1005D000230290912402A0912502B091260230912D
:1005E000220223E0230F2D3758F50196A11DB11DDE
:1005F000209322028093230290932402A093250249
:10060000B09326028091270290912802A09129029E
:10061000B0912A020196A11DB11D809327029093EB
:100620002802A0932902B0932A02BF91AF919F9113
:100630008F913F912F910F900FBE0F901F901895A3
:1006400026E8230F0296A11DB11DD2CFCF93DF93D1
:10065000CDB7DEB7A1970FB6F894DEBF0FBECDBF02
:10066000789484B5826084BD84B5816084BD85B58D
:10067000826085BD85B5816085BD80916E00816099
:1006800080936E001092810080918100826080933F
:100690008100809181008160809381008091800041
:1006A0008160809380008091B10084608093B1006C
:1006B0008091B00081608093B00080919100826051
:1006C000809391008091910081608093910080914E
:1006D00090008160809390008091A100826080935F
:1006E000A1008091A10081608093A1008091A00071
:1006F00081608093A000809121018260809321011C
:10070000809121018160809321018091200181608D
:100710008093200180917A00846080937A00809198
:100720007A00826080937A0080917A008160809361
:100730007A0080917A00806880937A001092C100DC
:10074000E4EBF1E02491EEE6F1E084918823C9F036
:1007500090E0880F991FFC01E25EFE4F4591549195
:10076000FC01EC5FFE4FA591B4919FB7F894FA019C
:1007700080812095822380838C91E22FE823EC9363
:100780009FBFE0913B02F0913C0282E08083E091C8
:100790003702F09138021082E0913902F0913A026A
:1007A0008FEC808310924302E0913F02F09140026F
:1007B00086E08083E0913D02F0913E02808180617D
:1007C0008083E0913D02F0913E02808188608083C9
:1007D000E0913D02F0913E02808180688083E0914B
:1007E0003D02F0913E0280818F7D808310E49AE08B
:1007F000892E912CA12CB12C80917B00877F809336
:100800007B0010937C0080917A00806480937A0052
:1008100080917A0086FDFCCFC0907800D09079005E
:1008200082E192E00E946F020D2C000CEE08FF089E
:10083000F7FE51C06DE28BE292E00E94AC012227EC
:100840003327A9012C193D094E095F0919A2CE01D0
:1008500081967C01CA01B901A50194010E94AE04F0
:10086000605DF70162937F01211531054105510556
:1008700089F7E114F10419F0C7010E946F028EE1BB
:1008800092E00E946F020E944A022B013C0188EE16
:10089000C82E83E0D82EE12CF12C0E944A02641964
:1008A000750986099709683E734081059105A8F38B
:1008B000F1E0CF1AD108E108F10828EE420E23E05A
:1008C000521E611C711CC114D104E104F10429F70A
:1008D0000E94190291CFA701960119A2CE0181961B
:1008E0007C01CA01B901A50194010E94AE04605DBA
:1008F000F70162937F01211531054105510589F703
:10090000B8CFEBE2F2E01382128288EE93E0A0E02F
:10091000B0E084839583A683B78384E092E09183DB
:10092000808385EC90E09587848784EC90E09787BE
:10093000868780EC90E0918B808B81EC90E0938BAC
:10094000828B82EC90E0958B848B86EC90E0978B89
:10095000868B118E128E138E148E0895A1E21A2E9C
:10096000AA1BBB1BFD010DC0AA1FBB1FEE1FFF1F53
:10097000A217B307E407F50720F0A21BB30BE40BA3
:10098000F50B661F771F881F991F1A9469F76095EA
:100990007095809590959B01AC01BD01CF010895A4
:1009A000EE0FFF1F881F8BBF0790F691E02D199463
:0409B000F894FFCFE9
:1009B40000000000AC0116014301F9017401520169
:1009C40066014C44522056616C7565203D000D0A49
:0209D400000021
:00000001FF
