:100000000C9462000C948A000C948A000C948A0070
:100010000C948A000C948A000C948A000C948A0038
:100020000C948A000C948A000C948A000C94E204CC
:100030000C948A000C948A000C948A000C948A0018
:100040000C9498040C948A000C9466040C9440045C
:100050000C948A000C948A000C948A000C948A00F8
:100060000C948A000C948A000000000024002700F1
:100070002A0000000000250028002B0000000000DE
:1000800023002600290004040404040404040202DA
:100090000202020203030303030301020408102007
:1000A0004080010204081020010204081020000012
:1000B0000008000201000003040700000000000027
:1000C00000009E0511241FBECFEFD8E0DEBFCDBFDC
:1000D00011E0A0E0B1E0EEE9FFE002C005900D9272
:1000E000A432B107D9F722E0A4E2B1E001C01D9229
:1000F000AB30B207E1F710E0C2E6D0E004C02197D0
:10010000FE010E94C707C136D107C9F70E94260623
:100110000C94CD070C9400008F929F92AF92BF92E7
:10012000FF920F931F93CF93DF93853B910511F4BB
:1001300084EB90E0F09008022BE02F1508F44CC0FF
:1001400020910A0208E512E0021B110927FD139510
:10015000000F111F000F111F20910902C8E8D0E005
:10016000C21BD10927FDD395CC0FDD1FCC0FDD1F9E
:100170004E010D2E000CAA08BB089801012E000CA0
:10018000440B550B281939094A095B09DC010E9407
:10019000820724EB30E040E050E00E945807820ED6
:1001A000931EA41EB51E8C169D062CF0E801801629
:1001B00091060CF4E4012297CC0FDD1F2FB7F894C1
:1001C0008F2D90E0FC01EE0FFF1FE80FF91FE553A4
:1001D000FE4FD283C1832FBFDF91CF911F910F912B
:1001E000FF90BF90AF909F908F900895AF92BF9275
:1001F000CF92DF92EF92FF920F931F93CF93DF93F3
:100200006C017B018B01040F151FEB015E01AE1821
:10021000BF08C017D10759F06991D601ED91FC9143
:100220000190F081E02DC6010995892B79F7C50170
:10023000DF91CF911F910F91FF90EF90DF90CF90C2
:10024000BF90AF900895FC01538D448D252F30E071
:10025000842F90E0821B930B541710F0CF960895D3
:1002600001970895FC01918D828D981761F0A28D00
:10027000AE0FBF2FB11D5D968C91928D9F5F9F73C6
:10028000928F90E008958FEF9FEF0895FC01918D7C
:10029000828D981731F0828DE80FF11D858D90E0E9
:1002A00008958FEF9FEF0895FC01918D228D892F86
:1002B00090E0805C9F4F821B91098F73992708956E
:1002C0008EE291E00E94540121E0892B09F420E0A4
:1002D000822F089580E090E0892B29F00E94600130
:1002E00081110C9400000895FC01A48DA80FB92F72
:1002F000B11DA35ABF4F2C91848D90E001968F734E
:100300009927848FA689B7892C93A089B1898C916C
:10031000837080648C93938D848D981306C00288BB
:10032000F389E02D80818F7D80830895EF92FF9285
:100330000F931F93CF93DF93EC0181E0888F9B8D08
:100340008C8D98131AC0E889F989808185FF15C0C2
:100350009FB7F894EE89FF896083E889F9898081E5
:100360008370806480839FBF81E090E0DF91CF91B4
:100370001F910F91FF90EF900895F62E0B8D10E0D6
:100380000F5F1F4F0F731127E02E8C8D8E110CC045
:100390000FB607FCFACFE889F989808185FFF5CF90
:1003A000CE010E947401F1CFEB8DEC0FFD2FF11DFA
:1003B000E35AFF4FF0829FB7F8940B8FEA89FB89CD
:1003C00080818062CFCFCF93DF93EC01888D88232B
:1003D000B9F0AA89BB89E889F9898C9185FD03C0A8
:1003E000808186FD0DC00FB607FCF7CF8C9185FF8D
:1003F000F2CF808185FFEDCFCE010E947401E9CF5D
:10040000DF91CF910895833081F028F4813099F005
:100410008230A9F008958730A9F08830C9F084307F
:10042000B1F4809180008F7D03C0809180008F7730
:1004300080938000089584B58F7784BD089584B536
:100440008F7DFBCF8091B0008F778093B0000895AF
:100450008091B0008F7DF9CF1F93CF93DF93282F2A
:1004600030E0F901E255FF4F8491F901E656FF4F64
:10047000D491F901EA57FF4FC491CC23A9F0162F6C
:1004800081110E940302EC2FF0E0EE0FFF1FEE58E7
:10049000FF4FA591B4918FB7F894EC91111108C05A
:1004A000D095DE23DC938FBFDF91CF911F9108950C
:1004B000DE2BF8CFCF93DF9390E0FC01E656FF4FA1
:1004C00024918A579F4FFC0184918823D1F090E0BA
:1004D000880F991FFC01E859FF4FA591B491FC01C9
:1004E000EE58FF4FC591D49161110EC09FB7F8949B
:1004F0008C91E22FE0958E238C932881E223E88370
:100500009FBFDF91CF9108958FB7F894EC91E22BC4
:10051000EC938FBFF6CF3FB7F89480912A0190916A
:100520002B01A0912C01B0912D0126B5A89B05C0EF
:100530002F3F19F00196A11DB11D3FBFBA2FA92F62
:10054000982F8827BC01CD01620F711D811D911D5F
:1005500042E0660F771F881F991F4A95D1F70895CB
:100560008F929F92AF92BF92CF92DF92EF92FF92C3
:100570000E948B024B015C0185E0C82ED12CE12C3E
:10058000F12C0E948B02681979098A099B09683E3F
:10059000734081059105A8F321E0C21AD108E10852
:1005A000F10888EE880E83E0981EA11CB11CC114CE
:1005B000D104E104F10429F7FF90EF90DF90CF9090
:1005C000BF90AF909F908F900895089590E080E045
:1005D0000895CF93DF93EC0160E08E810E942C029E
:1005E00061E08E810E942C0260E08E810E942C02CC
:1005F0008BE891E00197F1F7DF91CF910895CF92C9
:10060000DF92EF92FF920F931F93CF93DF936C01D2
:100610007C0187E0E80EF11CD0E0C0E0062F10E07E
:10062000B8010C2E02C0759567950A94E2F76170C7
:10063000F70181917F010E942C022196C430D105DF
:1006400079F7C601DF91CF911F910F91FF90EF9045
:10065000DF90CF900C94E902CF92DF92EF92FF925D
:100660000F931F93CF93DF93EC01F62E642F8C81B1
:100670000E942C028D818F3F19F060E00E942C02B5
:100680000F2D10E08F8584FF25C06E0187E0C80E16
:10069000D11CF12CE12CB8010E2C02C07595679588
:1006A0000A94E2F76170F60181916F010E942C02B9
:1006B000FFEFEF1AFF0A88E0E816F10461F7CE01B8
:1006C000DF91CF911F910F91FF90EF90DF90CF902E
:1006D0000C94E902B80184E0759567958A95E1F775
:1006E000CE010E94FF026F2DCE01DF91CF911F91AD
:1006F0000F91FF90EF90DF90CF900C94FF02CF937B
:10070000DF93823029F49091FF0198609093FF016C
:10071000809303021092040280E48093050280E13A
:100720008093060280E58093070261E08091F401E6
:100730000E945A028091F5018F3F19F061E00E94FA
:100740005A0261E08091F6010E945A02C0EFD1E0A6
:100750009E01205F31408091FF0184FD0BC084E049
:1007600090E021962817390744F461E08E810E94B9
:100770005A02EECF88E090E0F4CF8BE39DE0019742
:10078000F1F760E08091F4010E942C0260E080911A
:10079000F6010E942C028091F5018F3F19F060E074
:1007A0000E942C026091FF0164FD45C063E080EF70
:1007B00091E00E94FF02CBE4D6E4CE010197F1F76D
:1007C00063E080EF91E00E94FF022197F1F763E080
:1007D00080EF91E00E94FF0283E592E00197F1F73C
:1007E00062E080EF91E00E94FF026091FF01606291
:1007F00040E080EF91E00E942C0384E080930002AF
:1008000040E06CE080EF91E00E942C0340E061E06A
:1008100080EF91E00E942C038BE39FE10197F1F7B9
:1008200082E08093010240E066E080EF91E0DF919A
:10083000CF910C942C03606240E080EF91E00E9425
:100840002C038BE496E40197F1F76091FF0160625D
:1008500040E080EF91E00E942C0383E592E0019755
:10086000F1F76091FF01606240E080EF91E00E944B
:100870002C03BBCF41E00E942C0381E090E008955F
:100880001F920F920FB60F9211242F933F934F9305
:100890005F936F937F938F939F93AF93BF93EF93E8
:1008A000FF938EE291E00E947401FF91EF91BF915E
:1008B000AF919F918F917F916F915F914F913F91F8
:1008C0002F910F900FBE0F901F9018951F920F92AF
:1008D0000FB60F9211242F938F939F93EF93FF9353
:1008E000E0913E01F0913F018081E0914401F0915F
:1008F000450182FD1BC09081809147018F5F8F73FE
:1009000020914801821741F0E0914701F0E0E25D5B
:10091000FE4F958F80934701FF91EF919F918F91AB
:100920002F910F900FBE0F901F9018958081F4CFDC
:100930001F920F920FB60F9211242F933F938F9314
:100940009F93AF93BF938091260190912701A0912F
:100950002801B09129013091250123E0230F2D3783
:1009600058F50196A11DB11D209325018093260104
:1009700090932701A0932801B093290180912A0127
:1009800090912B01A0912C01B0912D010196A11DF8
:10099000B11D80932A0190932B01A0932C01B09359
:1009A0002D01BF91AF919F918F913F912F910F900A
:1009B0000FBE0F901F90189526E8230F0296A11DD9
:1009C000B11DD2CF1F920F920FB60F9211242F9309
:1009D0003F934F935F936F937F938F939F93AF93C7
:1009E000BF93CF93DF93EF93FF9380912401C09146
:1009F000EF01D0E087FF24C01092850010928400A0
:100A0000809124018F5F8093240180912401082E1E
:100A1000000C990B8C179D0724F4809124018C30D5
:100A2000C4F18091840090918500049680349C49A3
:100A300008F47AC08091840090918500049676C075
:100A400080912401082E000C990B8C179D07C4F689
:100A5000E09124018E2FEE0F990BFC01EE0FFF1F8A
:100A6000E80FF91FE553FE4F808186FFC9CFE09163
:100A700024018E2FEE0F990BFC01EE0FFF1FE80FE4
:100A8000F91FE553FE4F808160E08F730E942C02B6
:100A9000B7CF2091840030918500E09124018E2F02
:100AA000EE0F990BFC01EE0FFF1FE80FF91FE55346
:100AB000FE4F81819281820F931F909389008093D2
:100AC0008800E09124018E2FEE0F990BFC01EE0FB0
:100AD000FF1FE80FF91FE553FE4F808186FF11C00D
:100AE000E09124018E2FEE0F990BFC01EE0FFF1FFA
:100AF000E80FF91FE553FE4F808161E08F730E947C
:100B00002C02FF91EF91DF91CF91BF91AF919F9117
:100B10008F917F916F915F914F913F912F910F90A6
:100B20000FBE0F901F90189580E49CE99093890068
:100B3000809388008FEF80932401E3CF10923101DE
:100B40001092300188EE93E0A0E0B0E08093320193
:100B500090933301A0933401B093350184E091E088
:100B600090932F0180932E0185EC90E090933B01B0
:100B700080933A0184EC90E090933D0180933C0196
:100B800080EC90E090933F0180933E0181EC90E0F7
:100B9000909341018093400182EC90E09093430157
:100BA0008093420186EC90E090934501809344014C
:100BB00010924701109248011092490110924A0187
:100BC0008091EF018C30F0F591E0980F9093EF0158
:100BD0008093080290E0FC01EE0FFF1FE80FF91F61
:100BE000E553FE4F88EB9BE0928381831092F301E3
:100BF0001092F20186E191E09093F1018093F0016F
:100C000088E08093F4018FEF8093F50189E0809371
:100C1000F6018AE08093F7018BE08093F8018CE085
:100C20008093F9018DE08093FA011092FB011092FC
:100C3000FC011092FD011092FE011092FF0181E073
:100C40000C947F038FEF80930802D0CF789484B503
:100C5000826084BD84B5816084BD85B5826085BDB8
:100C600085B5816085BD80916E00816080936E0046
:100C70001092810080918100826080938100809138
:100C800081008160809381008091800081608093E9
:100C900080008091B10084608093B1008091B000A9
:100CA00081608093B00080917A00846080937A00A4
:100CB00080917A00826080937A0080917A008160CE
:100CC00080937A0080917A00806880937A001092F5
:100CD000C100809108028C3008F051C061E08EE0C4
:100CE0000E945A0280910802282F30E0F901EE0F8D
:100CF000FF1FE20FF31FE553FE4F9081907C9E6033
:100D000090831092090210920A022CE0622F0E9436
:100D1000BB07829FB001112430E020E0AB01420FFD
:100D2000531FFA01EE0FFF1FE40FF51FE553FE4FAF
:100D3000908196FD16C02F5F3F4F2C30310571F723
:100D400081110FC01092800082E080938100109288
:100D5000850010928400B19A80916F008260809328
:100D60006F00E09108028E2F90E0FC01EE0FFF1F54
:100D7000E80FF91FE553FE4F80818064808382E095
:100D80000E947F03E0913E01F0913F0182E0808369
:100D9000E0913A01F0913B011082E0913C01F09129
:100DA0003D018FEC808310924601E0914201F09169
:100DB000430186E08083E0914001F0914101808110
:100DC00080618083E0914001F091410180818860E1
:100DD0008083E0914001F0914101808180688083AF
:100DE000E0914001F091410180818F7D808360E03E
:100DF00082E00E945A02C0EBD0E00CE910E038E833
:100E0000E32E30E0F32E40E0C42E40E0D42EFE016D
:100E10008491F801A490F701B490BB2009F43CC080
:100E200081110E940302EB2DF0E0EE0FFF1FE4584A
:100E3000FF4FA591B4918C91A82271F19AE5A92E4A
:100E4000B12CC5010E948C000E94B002FFEFAF1AC6
:100E5000BF0A85EBA816B104A1F784EBA82EB12C2C
:100E6000C5010E948C000E94B002E1E0AE1AB108F8
:100E7000F9E5AF16B104A1F742E050E06EE171E090
:100E80008EE291E00E94F60042E050E061E271E003
:100E90008EE291E00E94F600C114D10409F4B7CFAC
:100EA0000E946001882309F4B2CF0E940000AFCFF6
:100EB000052E97FB1EF400940E946F0757FD07D084
:100EC0000E948A0707FC03D04EF40C946F075095DC
:100ED0004095309521953F4F4F4F5F4F0895909526
:100EE0008095709561957F4F8F4F9F4F08950E9419
:100EF000AC07A59F900DB49F900DA49F800D911DF0
:100F000011240895B7FF0C9477070E947707821B7E
:100F1000930B0895A1E21A2EAA1BBB1BFD010DC065
:100F2000AA1FBB1FEE1FFF1FA217B307E407F50799
:100F300020F0A21BB30BE40BF50B661F771F881F75
:100F4000991F1A9469F760957095809590959B010B
:100F5000AC01BD01CF010895A29FB001B39FC001B4
:100F6000A39F700D811D1124911DB29F700D811DD5
:100F70001124911D0895991B79E004C0991F9617BB
:100F800008F0961B881F7A95C9F780950895EE0F93
:0E0F9000FF1F0590F491E02D0994F894FFCF17
:100F9E00000000009601F6002301E3015401320126
:100FAE004601000000003A04F600E602E502796F01
:040FBE00000D0A0018
:00000001FF
