:100000000C9422010C9453010C9453010C94530151
:100010000C9453010C9453010C9453010C94530110
:100020000C9453010C9453010C9453010C94530100
:100030000C9453010C9453010C9453010C945301F0
:100040000C9453010C94E8050C9453010C94530147
:100050000C9453010C9453010C9453010C9414050B
:100060000C9453010C9453010C9453010C945301C0
:100070000C9453010C9453010C9453010C945301B0
:100080000C94BA050C9453010C9453010C94530135
:100090000C9453010C9453010C9453010C94530190
:1000A0000C9453010C9453010C948C050C94530143
:1000B0000C9453010C9453010C9453010C945E0561
:1000C0000C9453010C9453010C9453010C94530160
:1000D0000C9453010C9453010C9453010C94530150
:1000E0000C9453010C94BE030C943C070C946C02CA
:1000F0000C94F0010C940E050C949F020C94910248
:100100000C948B020C947D020C9483020C94990243
:100110000C944D020C9479020C9495020C94BD033E
:100120000C9468020C9464020C9470020C94730298
:100130000C9452020C94A3020C94870200000A0B48
:1001400002090C0D0E080703040100000000000066
:10015000000000000000000000000000000000009F
:10016000000000000000000012111000000000005C
:10017000000000000000000000000000000000007F
:10018000000000002200250028002B002E00310076
:10019000340002010000050108010B0100002100EC
:1001A000240027002A002D00300033000101000048
:1001B000040107010A0105050505070508080808E7
:1001C000020202020A0A08080404040401010101EF
:1001D00001010101030303030303030304070707EA
:1001E0000C0C0C0C0C0C0C0C02020202060606068F
:1001F000060606060B0B0B0B0B0B0B0B010210205C
:10020000200808102040102040800201020108044C
:1002100002010102040810204080804020100804E0
:100220000201800402018040201008040201080439
:10023000020101020408102040800102040810207D
:1002400040803C0711241FBECFEFD1E2DEBFCDBFFF
:1002500000E00CBF12E0A0E0B2E0E6EFFFE000E05B
:100260000BBF02C007900D92A631B107D9F722E06B
:10027000A6E1B2E001C01D92AF3CB207E1F711E088
:10028000C2E2D1E000E006C021970109802FFE0103
:100290000E94F107C132D10780E00807A9F70E9448
:1002A00016060C94F9070C94000090E0FC01E45051
:1002B000FE4F24918A549E4FFC018491882399F02B
:1002C00090E0880F991FFC01E456FE4FA591B49170
:1002D000FC01EE57FE4F859194918FB7F894EC9105
:1002E000E22BEC938FBF0895CF92DF92EF92FF92B3
:1002F000DC01A03282E0B807D4F5A53BB10514F0CB
:10030000A4EBB0E04091B50228E830E0241B3109AD
:1003100047FD3395220F331F220F331F6901330F1F
:10032000EE08FF084091B60228E532E0241B3109AF
:1003300047FD3395220F331F220F331F032E000C6E
:10034000440B550B2C193D094E095F09B7FF02C03C
:10035000B0E0A0E00E94AC0724EB30E040E050E0C9
:100360000E948207C20ED31EE41EF51ED601E09144
:10037000B402E03380F52091B50288E890E0821B5A
:10038000910927FD9395880F991F880F991FA8172A
:10039000B90784F02091B60288E592E0821B9109AA
:1003A00027FD9395880F991F880F991FA817B907E4
:1003B0000CF4CD010297880F991F4FB7F8942E2F98
:1003C00030E0F901EE0FFF1FE20FF31FEC5DFD4F70
:1003D000928381834FBFFF90EF90DF90CF9008957D
:1003E000AF92BF92CF92DF92EF92FF920F931F9343
:1003F000CF93DF936C017B018B01040F151FEB0181
:100400005E01AE18BF08C017D10759F06991D60137
:10041000ED91FC910190F081E02DC6011995892B99
:1004200079F7C501DF91CF911F910F91FF90EF9068
:10043000DF90CF90BF90AF900895282F30E0F90162
:10044000E45CFE4F9491F901E450FE4F44912A542C
:100450003E4FF9012491222309F435C0992311F16B
:1004600091509231F8F4E92FF0E08827E55CFD4FD8
:100470008F4F0C94F1076C0270024D026402680207
:100480005202730279027D02830287028B0291027B
:100490009502520299029F02A302809180008F77F9
:1004A00080938000E22FF0E0EE0FFF1FEE57FE4F2B
:1004B000A591B4918FB7F894EC91611148C0409523
:1004C0004E234C938FBF0895809180008F7DE8CF9D
:1004D00080918000877FE4CF84B58F7784BDE2CFA1
:1004E00084B58F7DFBCF8091B0008F778093B00073
:1004F000D9CF8091B0008F7DF9CF809190008F7718
:1005000080939000CFCF809190008F7DF9CF809124
:100510009000877FF5CF8091A0008F778093A00017
:10052000C1CF8091A0008F7DF9CF8091A000877FFF
:10053000F5CF809120018F7780932001B3CF8091F8
:1005400020018F7DF9CF80912001877FF5CF4E2B41
:10055000B8CF3FB7F8948091200290912102A091EA
:100560002202B091230226B5A89B05C02F3F19F0A7
:100570000196A11DB11D3FBFBA2FA92F982F882723
:10058000BC01CD01620F711D811D911D42E0660FFE
:10059000771F881F991F4A95D1F708958F929F92D0
:1005A000AF92BF92CF92DF92EF92FF920E94A90288
:1005B0004B015C0185E0C82ED12CE12CF12C0E946E
:1005C000A902681979098A099B09683E7340810567
:1005D0009105A8F321E0C21AD108E108F10888EEDC
:1005E000880E83E0981EA11CB11CC114D104E10443
:1005F000F10429F7FF90EF90DF90CF90BF90AF907C
:100600009F908F900895AF92BF92CF92DF92EF921A
:10061000FF920F931F93CF93DF936B017A01EC014D
:10062000C95EDD4F28813CE0389F8001399F100D65
:100630001124A0901602B12C27FF1FC0FB011182CC
:10064000108288818F5F888388819801280F311DEF
:1006500087FD3A95F6012A153B051CF488818C30FC
:10066000C4F180819181049680349C4908F473C060
:10067000F60180819181049670C088819801280FCD
:10068000311D87FD3A952A153B05DCF68881A801C6
:10069000480F511D87FD5A95FA01EE0FFF1FE40F19
:1006A000F51FEC5DFD4F808186FFCBCF8881F8017F
:1006B000E80FF11D87FDFA95CF01EE0FFF1FE80F40
:1006C000F91FEC5DFD4F808160E08F730E941D0279
:1006D000B8CF808191812881A801420F511D27FD4B
:1006E0005A959A01FA01EE0FFF1FE20FF31FEC5D1E
:1006F000FD4F21813281820F931FF7019183808307
:1007000088819801280F311D87FD3A95F901EE0F78
:10071000FF1FE20FF31FEC5DFD4F808186FF22C0BB
:100720008881080F111D87FD1A95F801EE0FFF1F34
:10073000E00FF11FEC5DFD4F808161E08F73DF9171
:10074000CF911F910F91FF90EF90DF90CF90BF90CE
:10075000AF900C941D0280E49CE9F70191838083A3
:100760008FEF8883DF91CF911F910F91FF90EF90D2
:10077000DF90CF90BF90AF900895089590E080E013
:100780000895CF93DF93EC0160E08E810E941D02FB
:1007900061E08E810E941D0260E08E810E941D0238
:1007A0008BE891E00197F1F7DF91CF910895CF9217
:1007B000DF92EF92FF920F931F93CF93DF936C0121
:1007C0007C0187E0E80EF11CD0E0C0E0062F10E0CD
:1007D000B8010C2E02C0759567950A94E2F7617016
:1007E000F70181917F010E941D022196C430D1053D
:1007F00079F7C601DF91CF911F910F91FF90EF9094
:10080000DF90CF900C94C103CF92DF92EF92FF92D2
:100810000F931F93CF93DF93EC01F62E642F8C81FF
:100820000E941D028D818F3F19F060E00E941D0221
:100830000F2D10E08F8584FF25C06E0187E0C80E64
:10084000D11CF12CE12CB8010E2C02C075956795D6
:100850000A94E2F76170F60181916F010E941D0216
:10086000FFEFEF1AFF0A88E0E816F10461F7CE0106
:10087000DF91CF911F910F91FF90EF90DF90CF907C
:100880000C94C103B80184E0759567958A95E1F7EA
:10089000CE010E94D7036F2DCE01DF91CF911F9122
:1008A0000F91FF90EF90DF90CF900C94D703CF93F0
:1008B000DF93823029F49091C60298609093C6022B
:1008C0008093CA021092CB0280E48093CC0280E134
:1008D0008093CD0280E58093CE028091BB020E947E
:1008E00055018091BC028F3F11F00E94550180910B
:1008F000BD020E945501C7EBD2E09E01275B32404A
:100900008091C60284FD0AC084E090E021962817F9
:1009100039073CF48E810E945501EFCF88E090E0CA
:10092000F5CF8BE39DE00197F1F760E08091BB028A
:100930000E941D0260E08091BD020E941D02809114
:10094000BC028F3F19F060E00E941D026091C60258
:1009500064FD45C063E087EB92E00E94D703CBE4DF
:10096000D6E4CE010197F1F763E087EB92E00E94B5
:10097000D7032197F1F763E087EB92E00E94D7035A
:1009800083E592E00197F1F762E087EB92E00E9445
:10099000D7036091C602606240E087EB92E00E945C
:1009A000040484E08093C70240E06CE087EB92E0AF
:1009B0000E94040440E061E087EB92E00E9404049E
:1009C0008BE39FE10197F1F782E08093C80240E05A
:1009D00066E087EB92E0DF91CF910C9404046062B3
:1009E00040E087EB92E00E9404048BE496E40197D8
:1009F000F1F76091C602606240E087EB92E00E94EE
:100A0000040483E592E00197F1F76091C602606209
:100A100040E087EB92E00E940404BBCF41E00E94DB
:100A2000040481E090E008951F920F920FB60F9298
:100A300011242F933F938F939F93AF93BF938091F4
:100A40001C0290911D02A0911E02B0911F023091D4
:100A50001B0223E0230F2D3758F50196A11DB11D70
:100A600020931B0280931C0290931D02A0931E02F0
:100A7000B0931F028091200290912102A091220246
:100A8000B09123020196A11DB11D80932002909385
:100A90002102A0932202B0932302BF91AF919F91B4
:100AA0008F913F912F910F900FBE0F901F9018952F
:100AB00026E8230F0296A11DB11DD2CF1F920F92DF
:100AC0000FB60F9211240BB60F922F933F934F93B3
:100AD0005F936F937F938F939F93AF93BF93EF93A6
:100AE000FF9348E251E064E271E090E080E00E9410
:100AF0000303FF91EF91BF91AF919F918F917F91F0
:100B00006F915F914F913F912F910F900BBE0F907E
:100B10000FBE0F901F9018951F920F920FB60F9255
:100B200011240BB60F922F933F934F935F936F93C4
:100B30007F938F939F93AF93BF93EF93FF9348EA75
:100B400050E064EA70E083E090E00E940303FF91CC
:100B5000EF91BF91AF919F918F917F916F915F9135
:100B60004F913F912F910F900BBE0F900FBE0F90A2
:100B70001F9018951F920F920FB60F9211240BB66B
:100B80000F922F933F934F935F936F937F938F9326
:100B90009F93AF93BF93EF93FF9348E950E064E9CD
:100BA00070E082E090E00E940303FF91EF91BF911B
:100BB000AF919F918F917F916F915F914F913F91F5
:100BC0002F910F900BBE0F900FBE0F901F90189596
:100BD0001F920F920FB60F9211240BB60F922F9304
:100BE0003F934F935F936F937F938F939F93AF93B5
:100BF000BF93EF93FF9348E850E064E870E081E032
:100C000090E00E940303FF91EF91BF91AF919F91FC
:100C10008F917F916F915F914F913F912F910F90A5
:100C20000BBE0F900FBE0F901F901895789484B54F
:100C3000826084BD84B5816084BD85B5826085BDD8
:100C400085B5816085BD80916E00816080936E0066
:100C50001092810080918100826080938100809158
:100C60008100816080938100809180008160809309
:100C700080008091B10084608093B1008091B000C9
:100C800081608093B0008091910082608093910098
:100C900080919100816080939100809190008160AB
:100CA000809390008091A10082608093A100809148
:100CB000A10081608093A1008091A0008160809359
:100CC000A000809121018260809321018091210107
:100CD00081608093210180912001816080932001B7
:100CE00080917A00846080937A0080917A0082609B
:100CF00080937A0080917A00816080937A0080915D
:100D00007A00806880937A001092C1008091B402CA
:100D1000803308F051C081E00E9455018091B402F7
:100D2000282F30E0F901EE0FFF1FE20FF31FEC5DFB
:100D3000FD4F9081907C916090831092B50210924B
:100D4000B6022CE0622F0E94E507829FB0011124B9
:100D500030E020E0AB01420F531FFA01EE0FFF1FFE
:100D6000E40FF51FEC5DFD4F908196FD17C02F5FDE
:100D70003F4F2C30310571F7813009F051C010928E
:100D8000800082E0809381001092850010928400A0
:100D9000B19A80916F00826080936F00E091B402FD
:100DA0008E2F90E0FC01EE0FFF1FE80FF91FEC5DA6
:100DB000FD4F80818064808382E00E9457040BE3B2
:100DC0001FE180E0E82E80E0F82E40E061E087EB54
:100DD00092E00E940404C8010197F1F749E050E055
:100DE0006CE072E087EB92E00E94F001D0E0C0E09E
:100DF000CE010E9474010E94CE022196C53BD1050E
:100E0000B9F7C4EBD0E0CE010E9474010E94CE027B
:100E10002197C8F7E114F104C1F20E940000D5CF78
:100E2000823061F4109290008093910010929500AE
:100E30001092940088BB80937100B0CF833069F426
:100E40001092A00082E08093A1001092A500109261
:100E5000A40089BB80937200A1CF81119FCF109213
:100E6000200182E08093210110922501109224013B
:100E70008ABB8093730092CF809116028033F0F585
:100E800091E0980F909316028093B40290E0FC01D9
:100E9000EE0FFF1FE80FF91FEC5DFD4F88EB9BE0A5
:100EA000928381831092BA021092B90284E092E098
:100EB0009093B8028093B70288E08093BB028FEFD3
:100EC0008093BC0289E08093BD028AE08093BE02D9
:100ED0008BE08093BF028CE08093C0028DE0809312
:100EE000C1021092C2021092C3021092C402109268
:100EF000C5021092C60281E00C9457048FEF8093D4
:100F0000B402D0CF052E97FB1EF400940E949907DF
:100F100057FD07D00E94B40707FC03D04EF40C9491
:100F2000990750954095309521953F4F4F4F5F4F12
:100F3000089590958095709561957F4F8F4F9F4F45
:100F400008950E94D607A59F900DB49F900DA49F71
:100F5000800D911D11240895B7FF0C94A1070E94E4
:100F6000A107821B930B0895A1E21A2EAA1BBB1B9B
:100F7000FD010DC0AA1FBB1FEE1FFF1FA217B30765
:100F8000E407F50720F0A21BB30BE40BF50B661F7B
:100F9000771F881F991F1A9469F76095709580953F
:100FA00090959B01AC01BD01CF010895A29FB001B6
:100FB000B39FC001A39F700D811D1124911DB29F8D
:100FC000700D811D1124911D0895991B79E004C0B5
:100FD000991F961708F0961B881F7A95C9F7809578
:100FE0000895EE0FFF1F881F8BBF0790F691E02D2D
:060FF0001994F894FFCFF4
:100FF600000000000E05F001BE03BD0353776170CB
:0610060070696E67200016
:00000001FF
