:100000000C9439010C944D010C944D010C944D014C
:100010000C944D010C944D010C944D010C944D0128
:100020000C944D010C944D010C944D010C944D0118
:100030000C944D010C944D010C944D010C944D0108
:100040000C944D010C944D010C944D010C944D01F8
:100050000C944D010C944D010C944D010C947503BE
:100060000C944D010C944D010C944D010C944D01D8
:100070000C944D010C944D010C944D010C944D01C8
:100080000C944D010C944D010C944D010C944D01B8
:100090000C944D010C944D010C944D010C944D01A8
:1000A0000C944D010C944D010C944D010C944D0198
:1000B0000C944D010C944D010C944D010C944D0188
:1000C0000C944D010C944D010C944D010C944D0178
:1000D0000C944D010C944D010C944D010C944D0168
:1000E0000C944D010C94D1010C9444020C94D40254
:1000F0000C94BD010C94CA020C94A2010C94B90199
:100100000C949D020C94C0020C944C020C947F023F
:100110000C94AB010C94DE020C9477020C949302C5
:100120000C94A5010C9496010C9451020C9484013A
:100130000C94B5010C94C7010C94CB010C94AC0247
:100140000C949A010C94C3010C9489020C949E01A6
:100150000C9465020C94AF010C947F010C94B602D0
:100160000C945B020C946F020C94D50100002100EA
:10017000240027002A002D00300033000101000078
:10018000040107010A0100002200250028002B00BD
:100190002E003100340002010000050108010B01AE
:1001A00005050505070508080808020202020A0AF3
:1001B0000808040404040101010101010101030311
:1001C000030303030303040707070C0C0C0C0C0CBC
:1001D0000C0C0202020206060606060606060B0BB9
:1001E0000B0B0B0B0B0B01021020200808102040FA
:1001F00010204080020102010804020101020408EB
:100200001020408080402010080402018004020178
:1002100080402010080402010804020101020408C1
:1002200010204080010204081020408000000A0BCA
:1002300002090C0D0E080703040100000000000075
:1002400000000000000000000000000000000000AE
:10025000000000000000000012111000000000006B
:10026000000000000000000000000000000000008E
:10027000000011241FBECFEFD1E2DEBFCDBF00E0F2
:100280000CBF22E0A0E0B2E001C01D92A930B2078D
:10029000E1F70E94BF030C94A1040C940000282FE6
:1002A00030E0F901E45DFD4F9491F901EA51FE4F10
:1002B000449120563E4FF9012491222309F435C080
:1002C000992311F191509231F8F4E92FF0E0882749
:1002D000E359FE4F8F4F0C9499049E01A2017F01B8
:1002E00096019A018401A501AB01AF01B501B901E5
:1002F000BD01C301C7018401CB01D101D5018091AA
:1003000080008F7780938000E22FF0E0EE0FFF1FD8
:10031000EA57FE4FA591B4918FB7F894EC91611113
:1003200048C040954E234C938FBF08958091800024
:100330008F7DE8CF80918000877FE4CF84B58F7771
:1003400084BDE2CF84B58F7DFBCF8091B0008F77E5
:100350008093B000D9CF8091B0008F7DF9CF80918C
:1003600090008F7780939000CFCF809190008F7D09
:10037000F9CF80919000877FF5CF8091A0008F7793
:100380008093A000C1CF8091A0008F7DF9CF809194
:10039000A000877FF5CF809120018F778093200187
:1003A000B3CF809120018F7DF9CF80912001877F8D
:1003B000F5CF4E2BB8CFCF93DF9390E0FC01EA51FD
:1003C000FE4F249180569E4FFC0184918823D1F0EA
:1003D00090E0880F991FFC01E459FE4FA591B4915C
:1003E000FC01EA57FE4FC591D49161110EC09FB731
:1003F000F8948C91E22FE0958E238C932881E22350
:10040000E8839FBFDF91CF9108958FB7F894EC9167
:10041000E22BEC938FBFF6CF1F93CF93DF93182F70
:10042000EB0161E00E94DB01209739F460E0812F4D
:10043000DF91CF911F910C944F01CF3FD10511F463
:1004400061E0F5CFE12FF0E0E45DFD4FE491E15094
:10045000E23108F0B3C0F0E08827EE5CFD4F8F4F2B
:100460000C94990444024C0251025B026502DE02C4
:100470006F0277027F02890293029D02AC02B602EC
:10048000DE02C002CA02D40284B5806884BDC7BD42
:10049000DF91CF911F91089584B5806284BDC8BD5E
:1004A000F7CF80918000806880938000D09389008E
:1004B000C0938800EDCF809180008062809380009F
:1004C000D0938B00C0938A00E3CF80918000886036
:1004D00080938000D0938D00C0938C00D9CF809101
:1004E000B00080688093B000C093B300D1CF8091FA
:1004F000B00080628093B000C093B400C9CF8091F7
:100500009000806880939000D0939900C0939800E9
:10051000BFCF80919000806280939000D0939B0029
:10052000C0939A00B5CF809190008860809390002E
:10053000D0939D00C0939C00ABCF8091A0008068B9
:100540008093A0008091A0008F7B8093A000D09327
:10055000A900C093A8009CCF8091A00080628093E6
:10056000A000D093AB00C093AA0092CF8091A000CE
:1005700088608093A000D093AD00C093AC0088CF7A
:1005800080912001806880932001D0932901C0933D
:1005900028017ECF80912001806280932001D0933A
:1005A0002B01C0932A0174CF809120018860809331
:1005B0002001D0932D01C0932C016ACFC038D10502
:1005C0000CF03ECF33CF863308F0865320917B006A
:1005D000982F9870277F922B90937B008770806470
:1005E00080937C0080917A00806480937A0080916F
:1005F0007A0086FDFCCF8091780090917900089573
:100600003FB7F8948091050290910602A0910702ED
:10061000B091080226B5A89B05C02F3F19F001969E
:10062000A11DB11D3FBFBA2FA92F982F8827BC014C
:10063000CD01620F711D811D911D42E0660F771F74
:10064000881F991F4A95D1F708958F929F92AF9274
:10065000BF92CF92DF92EF92FF920E9400034B0174
:100660005C0180EDC82E87E0D82EE12CF12C0E9491
:100670000003681979098A099B09683E734081055E
:100680009105A8F321E0C21AD108E108F10888EE2B
:10069000880E83E0981EA11CB11CC114D104E10492
:1006A000F10429F7FF90EF90DF90CF90BF90AF90CB
:1006B0009F908F900895CF93DF93D0E0C0E08DE3BB
:1006C0000E94E302BE018DE30E940C028CE30E94B3
:1006D000E302BE018CE30E940C022196C11581E069
:1006E000D80769F7DF91CF9108951F920F920FB647
:1006F0000F9211242F933F938F939F93AF93BF93A8
:100700008091010290910202A0910302B091040233
:100710003091000223E0230F2D3758F50196A11DDB
:10072000B11D209300028093010290930202A093D6
:100730000302B09304028091050290910602A091F9
:100740000702B09108020196A11DB11D8093050218
:1007500090930602A0930702B0930802BF91AF9155
:100760009F918F913F912F910F900FBE0F901F90EF
:10077000189526E8230F0296A11DB11DD2CF7894BB
:1007800084B5826084BD84B5816084BD85B5826096
:1007900085BD85B5816085BD80916E008160809347
:1007A0006E001092810080918100826080938100B0
:1007B00080918100816080938100809180008160C0
:1007C000809380008091B10084608093B10080911B
:1007D000B00081608093B00080919100826080932E
:1007E00091008091910081608093910080919000B0
:1007F0008160809390008091A10082608093A1002D
:100800008091A10081608093A1008091A00081600F
:100810008093A000809121018260809321018091CA
:10082000210181608093210180912001816080936A
:10083000200180917A00846080937A0080917A0010
:10084000826080937A0080917A00816080937A0040
:1008500080917A00806880937A001092C10061E0F4
:1008600081E00E94DB0161E082E00E94DB0161E047
:1008700083E00E94DB0161E084E00E94DB0160E034
:100880008DE30E94DB01C0E0D0E00E945B030E9488
:100890005B0366E981E00E944F0166E983E00E9404
:1008A0004F0161E081E00E944F0160E082E00E9420
:1008B0004F0161E083E00E944F0160E084E00E940C
:1008C0004F010E9425030E945B0366E981E00E94BC
:1008D0004F0166E983E00E944F0160E081E00E94E1
:1008E0004F0161E082E00E944F0160E083E00E94DE
:1008F0004F0161E084E00E944F010E9425030E94A5
:100900005B0360E081E00E944F0160E082E00E94B2
:100910004F0160E083E00E944F0160E084E00E94AC
:100920004F010E942503209709F4AFCF0E940000D9
:10093000ACCFEE0FFF1F881F8BBF0790F691E02D05
:060940001994F894FFCFAA
:00000001FF
