:100000000C944A010C947B010C947B010C947B01B1
:100010000C947B010C947B010C947B010C947B0170
:100020000C947B010C947B010C947B010C947B0160
:100030000C947B010C947B010C947B010C947B0150
:100040000C947B010C947B010C947B010C947B0140
:100050000C947B010C947B010C947B010C94A80400
:100060000C947B010C9472040C9448040C947B0156
:100070000C947B010C947B010C947B010C947B0110
:100080000C947B010C947B010C947B010C947B0100
:100090000C947B010C947B010C947B010C947B01F0
:1000A0000C947B010C947B010C947B010C947B01E0
:1000B0000C947B010C947B010C947B010C947B01D0
:1000C0000C947B010C947B010C947B010C947B01C0
:1000D0000C947B010C947B010C947B010C947B01B0
:1000E0000C947B010C9404030C942C040C941F03BB
:1000F0000C94A9030C94C1030C9417030C942004D2
:100100000C9433030C94AA010C9497030C94CD0126
:100110000C9425030C94D3030C942D030C940D0321
:100120000C9413020C94E1020C9460020C94DB0119
:100130000C947D010C94F7030C94CA030C941404E2
:100140000C94F8020C94FC020C94D0050C949D03C2
:100150000C9444040C94DF030C9411030C943703A7
:100160000C9491030C9400030C9429030C94070342
:100170000C9408040C9438040C94B5030C941B03E1
:100180000C94E6020C94B9010C94EB0300002100DE
:10019000240027002A002D00300033000101000058
:1001A000040107010A0100002200250028002B009D
:1001B0002E003100340002010000050108010B018E
:1001C00005050505070508080808020202020A0AD3
:1001D00008080404040401010101010101010303F1
:1001E000030303030303040707070C0C0C0C0C0C9C
:1001F0000C0C0202020206060606060606060B0B99
:100200000B0B0B0B0B0B01021020200808102040D9
:1002100010204080020102010804020101020408CA
:100220001020408080402010080402018004020158
:1002300080402010080402010804020101020408A1
:1002400010204080010204081020408000000A0BAA
:1002500002090C0D0E080703040100000000000055
:10026000000000000000000000000000000000008E
:10027000000000000000000012111000000000004B
:10028000000000000000000000000000000000006E
:100290000000D00511241FBECFEFD1E2DEBFCDBFDD
:1002A00000E00CBF12E0A0E0B2E0EEE0FCE000E015
:1002B0000BBF02C007900D92A231B107D9F722E01F
:1002C000A2E1B2E001C01D92A83BB207E1F711E044
:1002D000CAE4D1E000E006C021970109802FFE01A9
:1002E0000E94FD05C934D10780E00807A9F70E94E4
:1002F000F2040C9405060C940000AF92BF92CF92CA
:10030000DF92EF92FF920F931F93CF93DF936C01D5
:100310007B018B01040F151FEB015E01AE18BF08B6
:10032000C017D10759F06991D601ED91FC91019068
:10033000F081E02DC6011995892B79F7C501DF9170
:10034000CF911F910F91FF90EF90DF90CF90BF90D2
:10035000AF900895FC01538D448D252F30E0842FFC
:1003600090E0821B930B541710F0CF9608950197DD
:100370000895FC01918D828D981761F0A28DAE0FCA
:10038000BF2FB11D5D968C91928D9F5F9F73928F51
:1003900090E008958FEF9FEF0895FC01918D828D7D
:1003A000981731F0828DE80FF11D858D90E008954A
:1003B0008FEF9FEF0895FC01918D228D892F90E0A2
:1003C000805C9F4F821B91098F73992708958BE161
:1003D00092E00E94DB0121E0892B09F420E0822FCA
:1003E0000895FC01A48DA80FB92FB11DA35ABF4FCA
:1003F0002C91848D90E001968F739927848FA68924
:10040000B7892C93A089B1898C91837080648C9377
:10041000938D848D981306C00288F389E02D808126
:100420008F7D80830895EF92FF920F931F93CF9358
:10043000DF93EC0181E0888F9B8D8C8D98131AC01F
:10044000E889F989808185FF15C09FB7F894EE8906
:10045000FF896083E889F989808183708064808363
:100460009FBF81E090E0DF91CF911F910F91FF90AE
:10047000EF900895F62E0B8D10E00F5F1F4F0F7356
:100480001127E02E8C8D8E110CC00FB607FCFACF11
:10049000E889F989808185FFF5CFCE010E94F101BD
:1004A000F1CFEB8DEC0FFD2FF11DE35AFF4FF082E2
:1004B0009FB7F8940B8FEA89FB8980818062CFCF48
:1004C000CF93DF93EC01888D8823B9F0AA89BB898B
:1004D000E889F9898C9185FD03C0808186FD0DC076
:1004E0000FB607FCF7CF8C9185FFF2CF808185FF97
:1004F000EDCFCE010E94F101E9CFDF91CF910895B8
:1005000080E090E0892B29F00E94E70181110E9490
:10051000000080E090E0892B49F080E090E0892B9A
:1005200029F00E94000081110E94000080E090E00C
:10053000892B49F080E090E0892B29F00E9400008F
:1005400081110E94000080E090E0892B49F080E05A
:1005500090E0892B29F00E94000081110C9400008A
:100560000895282F30E0F901E45BFD4F9491F901E3
:10057000EA5FFD4F449120543E4FF901249122231C
:1005800009F435C0992311F191509231F8F4E92F13
:10059000F0E08827E153FD4F8F4F0C94FD050003D9
:1005A0000403E102F802FC02E60207030D03110353
:1005B00017031B031F0325032903E6022D0333033F
:1005C0003703809180008F7780938000E22FF0E0E6
:1005D000EE0FFF1FEA55FE4FA591B4918FB7F89427
:1005E000EC91611148C040954E234C938FBF089504
:1005F000809180008F7DE8CF80918000877FE4CF5D
:1006000084B58F7784BDE2CF84B58F7DFBCF809199
:10061000B0008F778093B000D9CF8091B0008F7DEC
:10062000F9CF809190008F7780939000CFCF809109
:1006300090008F7DF9CF80919000877FF5CF8091DA
:10064000A0008F778093A000C1CF8091A0008F7D04
:10065000F9CF8091A000877FF5CF809120018F771F
:1006600080932001B3CF809120018F7DF9CF8091BD
:100670002001877FF5CF4E2BB8CFCF93DF9390E04B
:10068000FC01EA5FFD4F249180549E4FFC01849150
:100690008823D1F090E0880F991FFC01E457FE4FAA
:1006A000A591B491FC01EA55FE4FC591D491611119
:1006B0000EC09FB7F8948C91E22FE0958E238C9317
:1006C0002881E223E8839FBFDF91CF9108958FB700
:1006D000F894EC91E22BEC938FBFF6CF982FE82F94
:1006E000F0E0E45BFD4FE491E150E23108F0CCC072
:1006F000F0E08827E158FC4F8F4F0C94FD059103E3
:1007000097039D03A903B5034404C103CA03D3039C
:10071000DF03EB03F70308041404440420042C044F
:10072000380484B5806884BD86EE87BD089584B59D
:10073000806284BD86EE88BD0895809180008068C7
:100740008093800086EE90E09093890080938800EB
:1007500008958091800080628093800086EE90E012
:1007600090938B0080938A00089580918000886028
:100770008093800086EE90E090938D0080938C00B3
:1007800008958091B00080688093B00086EE8093D9
:10079000B30008958091B00080628093B00086EE2F
:1007A0008093B400089580919000806880939000B9
:1007B00086EE90E090939900809398000895809140
:1007C000900080628093900086EE90E090939B0072
:1007D00080939A00089580919000886080939000A3
:1007E00086EE90E090939D0080939C000895809108
:1007F000A00080688093A0008091A0008F7B8093F0
:10080000A00086EE90E09093A9008093A800089540
:100810008091A00080628093A00086EE90E090938B
:10082000AB008093AA0008958091A0008860809317
:10083000A00086EE90E09093AD008093AC00089508
:100840008091200180688093200186EE90E0909353
:10085000290180932801089580912001806280936E
:10086000200186EE90E090932B0180932A01089559
:100870008091200188608093200186EE90E0909323
:100880002D0180932C01089561E0892F0C94B10211
:100890001F920F920FB60F9211240BB60F922F9347
:1008A0003F934F935F936F937F938F939F93AF93F8
:1008B000BF93EF93FF938BE192E00E94F101FF91D0
:1008C000EF91BF91AF919F918F917F916F915F91C8
:1008D0004F913F912F910F900BBE0F900FBE0F9035
:1008E0001F9018951F920F920FB60F9211240BB6FE
:1008F0000F922F938F939F93EF93FF93E0912B028F
:10090000F0912C028081E0913102F091320282FD5F
:100910001DC09081809134028F5F8F7320913502CA
:10092000821741F0E0913402F0E0E55EFD4F958FD3
:1009300080933402FF91EF919F918F912F910F90AF
:100940000BBE0F900FBE0F901F9018958081F2CFB5
:100950001F920F920FB60F9211242F933F938F93F4
:100960009F93AF93BF938091170290911802A0912B
:100970001902B0911A023091160223E0230F2D378D
:1009800058F50196A11DB11D209316028093170200
:1009900090931802A0931902B0931A028091120248
:1009A00090911302A0911402B09115020196A11D1D
:1009B000B11D8093120290931302A0931402B0937E
:1009C0001502BF91AF919F918F913F912F910F9001
:1009D0000FBE0F901F90189526E8230F0296A11DB9
:1009E000B11DD2CF789484B5826084BD84B5816016
:1009F00084BD85B5826085BD85B5816085BD8091EA
:100A00006E00816080936E00109281008091810061
:100A10008260809381008091810081608093810059
:100A2000809180008160809380008091B10084601B
:100A30008093B1008091B00081608093B00080917C
:100A400091008260809391008091910081608093F9
:100A50009100809190008160809390008091A1002E
:100A600082608093A1008091A10081608093A100A9
:100A70008091A00081608093A0008091210182601C
:100A800080932101809121018160809321018091D7
:100A9000200181608093200180917A00846080939E
:100AA0007A0080917A00826080937A0080917A0047
:100AB000816080937A0080917A00806880937A00C8
:100AC0001092C10061E081E00E943D0361E082E09C
:100AD0000E943D0361E083E00E943D0361E084E009
:100AE0000E943D0360E086E00E943D0360E087E0F5
:100AF0000E943D03E0912B02F0912C0282E0808362
:100B0000E0912702F09128021082E0912902F091F1
:100B10002A028FEC808310923302E0912F02F09131
:100B2000300286E08083E0912D02F0912E028081D8
:100B300080618083E0912D02F0912E028081886097
:100B40008083E0912D02F0912E0280818068808365
:100B5000E0912D02F0912E0280818F7D808361E0F3
:100B600086E00E943D0386E00E946E0361E087E01C
:100B70000E943D0387E00E946E0361E081E00E94D5
:100B8000B10260E082E00E94B10261E083E00E9475
:100B9000B10260E084E00E94B1020E948002DFCFD7
:100BA000EBE1F2E01382128288EE93E0A0E0B0E085
:100BB00084839583A683B78384E092E091838083C6
:100BC00085EC90E09587848784EC90E09787868712
:100BD00080EC90E0918B808B81EC90E0938B828B0A
:100BE00082EC90E0958B848B86EC90E0978B868BE3
:100BF000118E128E138E148E0895EE0FFF1F881F14
:0E0C00008BBF0790F691E02D1994F894FFCF6A
:100C0E000000000013027D01AA016002DB01B901A0
:020C1E00CD0106
:00000001FF
