:100000000C942F010C9460010C9460010C9460011D
:100010000C9460010C9460010C9460010C946001DC
:100020000C9460010C9460010C9460010C946001CC
:100030000C9460010C9460010C9460010C946001BC
:100040000C9460010C9460010C9460010C946001AC
:100050000C9460010C9460010C9460010C947E047B
:100060000C9460010C9460010C9460010C9460018C
:100070000C9460010C9460010C9460010C9460017C
:100080000C9460010C9460010C9460010C9460016C
:100090000C9460010C9460010C9460010C9460015C
:1000A0000C9460010C9460010C9460010C9460014C
:1000B0000C9460010C9460010C9460010C9460013C
:1000C0000C9460010C9460010C9460010C9460012C
:1000D0000C9460010C9460010C9460010C9460011C
:1000E0000C9460010C94D5020C94C8010C94E801A6
:1000F0000C94F2010C94BB010C94D6010C94ED010C
:100100000C94AD010C94BF010C94DA010C947804AA
:100110000C94D2010C94E0010C9462010C94B30194
:100120000C94E4010C94D6020C94B7010C94EF05E6
:100130000C94CC010C94EE010C94C201000021003F
:10014000240027002A002D003000330001010000A8
:10015000040107010A0100002200250028002B00ED
:100160002E003100340002010000050108010B01DE
:10017000000020002300260029002C002F00320060
:100180000001000003010601090105050505070539
:1001900008080808020202020A0A08080404040403
:1001A000010101010101010103030303030303032F
:1001B000040707070C0C0C0C0C0C0C0C02020202BE
:1001C00006060606060606060B0B0B0B0B0B0B0BA7
:1001D0000102102020080810204010204080020159
:1001E000020108040201010204081020408080403E
:1001F000201008040201800402018040201008043D
:1002000002010804020101020408102040800102DA
:1002100004081020408000000A0B02090C0D0E0893
:1002200007030401000000000000000000000000BF
:1002300000000000000000000000000000000000BE
:10024000000012111000000000000000000000007B
:10025000000000000000000000000000EF05112475
:100260001FBECFEFD1E2DEBFCDBF00E00CBF12E07A
:10027000A0E0B2E0E4E7FCE000E00BBF02C00790C2
:100280000D92A034B107D9F722E0A0E4B2E001C09A
:100290001D92A136B207E1F711E0CFE2D1E000E014
:1002A00006C021970109802FFE010E943006CE3240
:1002B000D10780E00807A9F70E94C8040C9438060B
:1002C0000C940000AF92BF92CF92DF92EF92FF9218
:1002D0000F931F93CF93DF936C017B018B01040F6E
:1002E000151FEB015E01AE18BF08C017D10759F00A
:1002F0006991D601ED91FC910190F081E02DC6014C
:100300001995892B79F7C501DF91CF911F910F9135
:10031000FF90EF90DF90CF90BF90AF900895815005
:10032000823108F05AC0E82FF0E08827E556FE4FEA
:100330008F4F0C943006BB01BF01AD01B301B70173
:10034000ED01C201C801CC01D201D601DA01E00100
:10035000E401ED01E801EE01F201809180008F7768
:10036000809380000895809180008F7DF9CF8091E7
:100370008000877FF5CF84B58F7784BD089584B5DD
:100380008F7DFBCF8091B0008F778093B000089570
:100390008091B0008F7DF9CF809190008F7780930E
:1003A00090000895809190008F7DF9CF809190000A
:1003B000877FF5CF8091A0008F778093A00008956C
:1003C0008091A0008F7DF9CF8091A000877FF5CF2D
:1003D000809120018F7780932001089580912001E2
:1003E0008F7DF9CF80912001877FF5CFCF93DF9369
:1003F000282F30E0F901EA5EFD4F8491F901E053C6
:10040000FE4FD491F901E657FE4FC491CC23A1F0E1
:1004100081110E948F01EC2FF0E0EE0FFF1FE059D9
:10042000FE4FA591B491EC91ED2381E090E009F4A9
:1004300080E0DF91CF91089580E090E0FACF1F93A4
:10044000CF93DF93282F30E0F901EA5EFD4F8491CE
:10045000F901E053FE4FD491F901E657FE4FC491E4
:10046000CC23A9F0162F81110E948F01EC2FF0E010
:10047000EE0FFF1FEA5AFE4FA591B4918FB7F89483
:10048000EC91111108C0D095DE23DC938FBFDF9172
:10049000CF911F910895DE2BF8CFCF93DF9390E09B
:1004A000FC01E053FE4F249186579E4FFC0184913E
:1004B0008823D1F090E0880F991FFC01E45CFE4F87
:1004C000A591B491FC01EA5AFE4FC591D4916111F6
:1004D0000EC09FB7F8948C91E22FE0958E238C93F9
:1004E0002881E223E8839FBFDF91CF9108958FB7E2
:1004F000F894EC91E22BEC938FBFF6CF3FB7F894D2
:100500008091450290914602A0914702B091480225
:1005100026B5A89B05C02F3F19F00196A11DB11D5E
:100520003FBFBA2FA92F982F8827BC01CD01620F9A
:10053000711D811D911D42E0660F771F881F991F55
:100540004A95D1F708958F929F92AF92BF92CF9222
:10055000DF92EF92FF924B015C010E947E026B01E1
:100560007C010E947E026C197D098E099F09683EFC
:10057000734081059105A8F321E0821A9108A10832
:10058000B10888EEC80E83E0D81EE11CF11C81146E
:100590009104A104B10429F7FF90EF90DF90CF9070
:1005A000BF90AF909F908F900895089590E080E065
:1005B00008958F929F92AF92BF920F931F93CF9304
:1005C000DF93CDB7DEB7A1970FB6F894DEBF0FBEAD
:1005D000CDBF19A2423008F44AE08E010F5D1F4FD3
:1005E000842E912CB12CA12CA50194010E940E0601
:1005F000E62FB901CA01EA3044F5E05DD801EE9377
:100600008D01232B242B252B79F790E080E0109788
:1006100069F0FD0101900020E9F73197AF014A1B15
:100620005B0BBD0189E492E00E946201A1960FB6C6
:10063000F894DEBF0FBECDBFDF91CF911F910F9118
:10064000BF90AF909F908F900895E95CD7CFFC0149
:1006500001900020E9F73197AF01481B590BBC010D
:1006600089E492E00C946201CF93DF93EC0160E0A7
:100670008E810E941F0261E08E810E941F0260E055
:100680008E810E941F028BE891E00197F1F7DF91C4
:10069000CF910895CF92DF92EF92FF920F931F9325
:1006A000CF93DF936C017C0187E0E80EF11CD0E072
:1006B000C0E0062F10E0B8010C2E02C075956795BA
:1006C0000A94E2F76170F70181917F010E941F0295
:1006D0002196C430D10579F7C601DF91CF911F91E2
:1006E0000F91FF90EF90DF90CF900C943403CF9256
:1006F000DF92EF92FF920F931F93CF93DF93EC0162
:10070000F62E642F8C810E941F028D818F3F19F07D
:1007100060E00E941F020F2D10E08F8584FF25C02E
:100720006E0187E0C80ED11CF12CE12CB8010E2C13
:1007300002C0759567950A94E2F76170F6018191A0
:100740006F010E941F02FFEFEF1AFF0A88E0E81610
:10075000F10461F7CE01DF91CF911F910F91FF90CE
:10076000EF90DF90CF900C943403B80184E075953E
:1007700067958A95E1F7CE010E944A036F2DCE015D
:10078000DF91CF911F910F91FF90EF90DF90CF906D
:100790000C944A0340E0682F89E492E00C947703BC
:1007A00081E00E94CA038BE39FE10197F1F708956E
:1007B000CF93DF93613029F0909158029860909325
:1007C000580260935C0210925D0290E490935E0286
:1007D00080935F02805C8093600261E080914D02B3
:1007E0000E944D0280914E028F3F19F061E00E94FD
:1007F0004D0261E080914F020E944D02C9E4D2E0B7
:100800009E01295432408091580284FD0BC084E03F
:1008100090E021962817390744F461E08E810E9408
:100820004D02EECF88E090E0F4CF8BE39DE001979E
:10083000F1F760E080914D020E941F0260E080911C
:100840004F020E941F0280914E028F3F19F060E01C
:100850000E941F028091580284FD34C063E089E445
:1008600092E00E944A03CBE4D6E4CE010197F1F76F
:1008700063E089E492E00E944A032197F1F763E084
:1008800089E492E00E944A0383E592E00197F1F740
:1008900062E089E492E00E944A03809158028062FB
:1008A0000E94CA0384E0809359028CE00E94CA032C
:1008B0000E94D00382E080935A0286E0DF91CF91BC
:1008C0000C94CA0380620E94CA038BE496E40197E9
:1008D000F1F78091580280620E94CA0383E592E09A
:1008E0000197F1F78091580280620E94CA03D5CF28
:1008F00041E00E94770381E090E008951F920F92FB
:100900000FB60F9211242F933F938F939F93AF9322
:10091000BF938091410290914202A0914302B09115
:1009200044023091400223E0230F2D3758F5019601
:10093000A11DB11D20934002809341029093420279
:10094000A0934302B09344028091450290914602E5
:10095000A0914702B09148020196A11DB11D80935C
:10096000450290934602A0934702B0934802BF917C
:10097000AF919F918F913F912F910F900FBE0F904C
:100980001F90189526E8230F0296A11DB11DD2CF06
:10099000789484B5826084BD84B5816084BD85B55A
:1009A000826085BD85B5816085BD80916E00816066
:1009B00080936E001092810080918100826080930C
:1009C000810080918100816080938100809180000E
:1009D0008160809380008091B10084608093B10039
:1009E0008091B00081608093B0008091910082601E
:1009F000809391008091910081608093910080911B
:100A000090008160809390008091A100826080932B
:100A1000A1008091A10081608093A1008091A0003D
:100A200081608093A00080912101826080932101E8
:100A3000809121018160809321018091200181605A
:100A40008093200180917A00846080937A00809165
:100A50007A00826080937A0080917A00816080932E
:100A60007A0080917A00806880937A001092C100A9
:100A700060E081E00E944D0260E082E00E944D0251
:100A800060E083E00E944D0264E084E10E94D803AC
:100A90000E94D003C0E0D0E00AE010E081E00E94B4
:100AA000F6015C0182E00E94F6016C0183E00E9485
:100AB000F6017C01AA94AB2809F067C0CA94CD283E
:100AC00069F48091000290910102019718161906AD
:100AD0000CF061C09093010280930002EA94EF2829
:100AE00069F4809100029091010201968A3091058B
:100AF0000CF06EC090930102809300020E94D0031C
:100B0000E1E080915C028111E0E0E195F0E0E75BDB
:100B1000FD4F848980680E94CA038BE192E00E94A5
:100B20002703E0915C02E23008F057C0E150F0E0AA
:100B3000E75BFD4F848980680E94CA038EE292E0E1
:100B40000E942703C0900002D09001020D2C000CDF
:100B5000EE08FF084AE0C701B601F7FE0EC041E00B
:100B60006DE289E492E00E94770366277727CB0144
:100B70006C197D098E099F094AE00E94D9026CED2B
:100B800075E080E090E00E94A302209709F486CFF0
:100B90000E94000083CF1092010210920002E091A7
:100BA0005C02E33098F4E150F0E0E75BFD4F8489AC
:100BB00080680E94CA038EE092E00E94270360EDE5
:100BC00077E080E090E00E94A30288CFE2E0ECCFE3
:100BD000109301020093000291CFE1E0A8CFE9E475
:100BE000F2E01382128286E092E09183808388E0B3
:100BF00084838FEF858389E086838AE087838BE017
:100C000080878CE081878DE0828713861486158625
:100C10001686178661E080E10C94D803A1E21A2EB3
:100C2000AA1BBB1BFD010DC0AA1FBB1FEE1FFF1F90
:100C3000A217B307E407F50720F0A21BB30BE40BE0
:100C4000F50B661F771F881F991F1A9469F7609527
:100C50007095809590959B01AC01BD01CF010895E1
:100C6000EE0FFF1F881F8BBF0790F691E02D1994A0
:040C7000F894FFCF26
:100C74000A000000000078046201D602D502506127
:100C8400726B696E672046756C6C0057656C436FB8
:100C94006D6520546F205061726B696E67004176F8
:100CA40061696C61626C6520536C6F74733A000007
:00000001FF
