:100000000C9430010C9461010C9461010C94610119
:100010000C9461010C9461010C9461010C946101D8
:100020000C9461010C9461010C9461010C946101C8
:100030000C9461010C9482040C9461010C94610194
:100040000C9461010C9461010C9461010C946101A8
:100050000C9461010C9461010C9461010C943804BE
:100060000C9461010C9461010C9461010C94610188
:100070000C9461010C9461010C9461010C94610178
:100080000C9461010C9461010C9461010C94610168
:100090000C9461010C9461010C9461010C94610158
:1000A0000C9461010C9461010C9461010C94610148
:1000B0000C9461010C9461010C9461010C94610138
:1000C0000C9461010C9461010C9461010C94610128
:1000D0000C9461010C9461010C9461010C94610118
:1000E0000C9461010C94C1010C9487010C94B4012F
:1000F0000C9493010C94AE020C94BC010C948B01F3
:100100000C9432040C9480020C949C010C94AD026B
:100110000C94C6010C94A0010C9481010C94B801BC
:100120000C9496010C94A6010C94C2010C948F01BE
:100130000C942B080C94AA010C94AE010000200032
:100140002300260029002C002F00320000010000AF
:100150000301060109010200002100240027002AF2
:10016000002D003000330001010000040107010AE6
:100170000100002200250028002B002E0031003451
:100180000002010000050108010B01050505050736
:100190000508080808020202020A0A080804040402
:1001A000040101010101010101030303030303032E
:1001B00003040707070C0C0C0C0C0C0C0C020202BD
:1001C0000206060606060606060B0B0B0B0B0B0BB0
:1001D0000B0102102020080810204010204080024F
:1001E000010201080402010102040810204080807D
:1001F0004020100804020180040201804020100801
:1002000004020108040201010204081020408001D8
:100210000204081020408000000A0B02090C0D0E99
:1002200008070304010000000000000000000000B7
:1002300000000000000000000000000000000000BE
:10024000000000121110000000000000000000007B
:1002500000000000000000000000000000002B086B
:1002600011241FBECFEFD1E2DEBFCDBF00E00CBF37
:1002700012E0A0E0B2E0E6EAF0E100E00BBF02C06D
:1002800007900D92A636B107D9F722E0A6E6B2E0B4
:1002900001C01D92A73AB207E1F711E0C0E3D1E037
:1002A00000E006C021970109802FFE010E94490845
:1002B000CF32D10780E00807A9F70E9421050C94EE
:1002C00051080C9400008150823108F05AC0E82F88
:1002D000F0E08827E159FE4F8F4F0C9449088F01B9
:1002E0009301810187018B01C10196019C01A0014D
:1002F000A601AA01AE01B401B801C101BC01C2014D
:10030000C601809180008F7780938000089580914E
:1003100080008F7DF9CF80918000877FF5CF84B5F5
:100320008F7784BD089584B58F7DFBCF8091B00019
:100330008F778093B00008958091B0008F7DF9CFC2
:10034000809190008F778093900008958091900025
:100350008F7DF9CF80919000877FF5CF8091A000AD
:100360008F778093A00008958091A0008F7DF9CFB2
:100370008091A000877FF5CF809120018F778093B7
:1003800020010895809120018F7DF9CF8091200177
:10039000877FF5CF1F93CF93DF93282F30E0F901AC
:1003A000E95EFD4F8491F901EF52FE4FD491F901BE
:1003B000E557FE4FC491CC23A9F0162F81110E945E
:1003C0006301EC2FF0E0EE0FFF1FEF58FE4FA591F9
:1003D000B4918FB7F894EC91111108C0D095DE2339
:1003E000DC938FBFDF91CF911F910895DE2BF8CF63
:1003F000CF93DF9390E0FC01EF52FE4F249185579D
:100400009E4FFC0184918823D1F090E0880F991FC2
:10041000FC01E95AFE4FA591B491FC01EF58FE4F43
:10042000C591D49161110EC09FB7F8948C91E22FC1
:10043000E0958E238C932881E223E8839FBFDF9190
:10044000CF9108958FB7F894EC91E22BEC938FBF86
:10045000F6CF3FB7F89480918B0290918C02A091D7
:100460008D02B0918E0226B5A89B05C02F3F19F0D2
:100470000196A11DB11D3FBFBA2FA92F982F882724
:10048000BC01CD01620F711D811D911D42E0660FFF
:10049000771F881F991F4A95D1F708958F929F92D1
:1004A000AF92BF92CF92DF92EF92FF924B015C012D
:1004B0000E9429026B017C010E9429026C197D09AE
:1004C0008E099F09683E734081059105A8F321E0DC
:1004D000821A9108A108B10888EEC80E83E0D81EE0
:1004E000E11CF11C81149104A104B10429F7FF90CF
:1004F000EF90DF90CF90BF90AF909F908F90089536
:10050000AF92BF92CF92DF92EF92FF920F931F9321
:10051000CF93DF936C017B018B01040F151FEB015F
:100520005E01AE18BF08C017D10759F06991D60116
:10053000ED91FC910190F081E02DC6011995892B78
:1005400079F7C501DF91CF911F910F91FF90EF9047
:10055000DF90CF90BF90AF900895089590E080E035
:10056000089560E081E00E94CA0160E082E00E949C
:10057000CA0160E083E00E94CA0160E084E00C945C
:10058000CA0161E081E00E94CA0160E082E00E944D
:10059000CA0161E083E00E94CA0160E084E00C943B
:1005A000CA01FC0101900020E9F73197AF01481B17
:1005B000590BBC018FE892E00C948002CF93DF933B
:1005C000EC0160E08E810E94CA0161E08E810E9490
:1005D000CA0160E08E810E94CA018BE891E0019718
:1005E000F1F7DF91CF910895CF92DF92EF92FF92D2
:1005F0000F931F93CF93DF936C017C0187E0E80E8C
:10060000F11CD0E0C0E0062F10E0B8010C2E02C0B3
:10061000759567950A94E2F76170F70181917F0102
:100620000E94CA012196C430D10579F7C601DF9135
:10063000CF911F910F91FF90EF90DF90CF900C948E
:10064000DE02CF92DF92EF92FF920F931F93CF9330
:10065000DF93EC01F62E642F8C810E94CA018D81FC
:100660008F3F19F060E00E94CA010F2D10E08F85C6
:1006700084FF25C06E0187E0C80ED11CF12CE12C4F
:10068000B8010E2C02C0759567950A94E2F7617067
:10069000F60181916F010E94CA01FFEFEF1AFF0A74
:1006A00088E0E816F10461F7CE01DF91CF911F9148
:1006B0000F91FF90EF90DF90CF900C94DE02B80185
:1006C00084E0759567958A95E1F7CE010E94F40262
:1006D0006F2DCE01DF91CF911F910F91FF90EF9081
:1006E000DF90CF900C94F40240E061E08FE892E05C
:1006F0000E9421038BE39FE10197F1F70895CF93C7
:10070000DF93823029F490919E02986090939E022C
:100710008093A2021092A30280E48093A40280E15D
:100720008093A50280E58093A60261E08091930208
:100730000E94F801809194028F3F19F061E00E94BD
:10074000F80161E0809195020E94F801CFE8D2E0C3
:100750009E012F58324080919E0284FD0BC084E0A0
:1007600090E021962817390744F461E08E810E94B9
:10077000F801EECF88E090E0F4CF8BE39DE00197A5
:10078000F1F760E0809193020E94CA0160E08091DD
:1007900095020E94CA01809194028F3F19F060E097
:1007A0000E94CA0160919E0264FD3DC063E08FE833
:1007B00092E00E94F402CBE4D6E4CE010197F1F777
:1007C00063E08FE892E00E94F4022197F1F763E082
:1007D0008FE892E00E94F40283E592E00197F1F73E
:1007E00062E08FE892E00E94F40260919E026062F3
:1007F00040E08FE892E00E94210384E080939F0212
:1008000040E06CE08FE892E00E9421030E947403B4
:1008100082E08093A00240E066E08FE892E0DF9102
:10082000CF910C942103606240E08FE892E00E9437
:1008300021038BE496E40197F1F760919E026062D8
:1008400040E08FE892E00E94210383E592E0019767
:10085000F1F760919E02606240E08FE892E00E94B2
:100860002103C3CF41E00E94210381E090E008957D
:100870001F920F920FB60F9211242F933F938F93D5
:100880009F93AF93BF938091870290918802A0912C
:100890008902B0918A023091860223E0230F2D371E
:1008A00058F50196A11DB11D209386028093870201
:1008B00090938802A0938902B0938A0280918B0260
:1008C00090918C02A0918D02B0918E020196A11D93
:1008D000B11D80938B0290938C02A0938D02B093F4
:1008E0008E02BF91AF919F918F913F912F910F9069
:1008F0000FBE0F901F90189526E8230F0296A11D9A
:10090000B11DD2CF1F920F920FB60F9211240BB6CA
:100910000F922F933F934F935F936F937F938F9398
:100920009F93AF93BF93EF93FF9380917A0290913F
:100930007B02A0917C02B0917D02892B8A2B8B2BAC
:10094000E1F190916902E0916A02F0916B0280817D
:100950008927808380917A0290917B02A0917C020A
:10096000B0917D02181619061A061B069CF4809198
:100970007A0290917B02A0917C02B0917D02019756
:10098000A109B10980937A0290937B02A0937C0223
:10099000B0937D02FF91EF91BF91AF919F918F91A5
:1009A0007F916F915F914F913F912F910F900BBE6F
:1009B0000F900FBE0F901F90189580910002E6E5F2
:1009C000F1E0E4919FEF90930002E230E9F040F40F
:1009D000EE2389F0E13091F060E00E94CA01DACFA5
:1009E000E43049F110F1E530B9F7909173009D7F43
:1009F00090937300F1CF10926E00EECF90916F0044
:100A00009D7F90936F00E8CF909170009D7F9093B1
:100A1000700091E09093B0009091B100987F946045
:100A20009093B1001092B300D7CF909171009D7F49
:100A300090937100D1CF909172009D7F909372003E
:100A4000CBCF789484B5826084BD84B5816084BD49
:100A500085B5826085BD85B5816085BD80916E005C
:100A6000816080936E00109281008091810082608D
:100A700080938100809181008160809381008091CA
:100A800080008160809380008091B10084608093B9
:100A9000B1008091B00081608093B000809191009E
:100AA0008260809391008091910081608093910099
:100AB000809190008160809390008091A10082607D
:100AC0008093A1008091A10081608093A10080911A
:100AD000A00081608093A0008091210182608093BA
:100AE0002101809121018160809321018091200169
:100AF00081608093200180917A00846080937A00E5
:100B000080917A00826080937A0080917A0081607F
:100B100080937A0080917A00806880937A001092A6
:100B2000C10061E081E00E94F80161E082E00E9482
:100B3000F80161E083E00E94F80161E084E00E9436
:100B4000F80160E087E00E94F80182E00E947F03E4
:100B5000EFE3EE2EEFE1FE2EF6E56F2EF1E07F2EB5
:100B6000AAE92A2EA1E03A2E00EE11E0B0E18B2E88
:100B7000B7E29B2EA12CB12C70E0472E70E0572ECF
:100B8000EEE1F2E08491E8EDF1E0C490E2E9F1E019
:100B9000D490DD2009F448C081110E946301ED2D3D
:100BA000F0E0EE0FFF1FE45CFE4FA591B4918C9135
:100BB000C82291E080E009F490E0C92ED82E0E946E
:100BC000C10268EE73E080E090E00E944E02CA9499
:100BD000CD2809F037C2809100028F3041F5F30132
:100BE000C491C7FD7BC161E08FE00E94F801CC2376
:100BF00009F4EDC0C23009F0FEC08091B100887FD9
:100C000083608093B10089EF8093B30080927A0271
:100C100090927B02A0927C02B0927D028091700043
:100C20008260809370005AC1D12CC12CC8CF8F3FF5
:100C300009F054C18FE080930002F301C4918C2F1E
:100C4000CF3F09F44BC1C23009F465C060F4CC2336
:100C500071F1C13009F442C087FD40C161E08FE00D
:100C60000E94F801C7CFC43009F494C008F474C0DE
:100C7000C53091F71092200110922101809121013D
:100C800088608093210180912101816080932101FE
:100C9000F1018491E82FF0E0EE0FFF1FEF58FE4FB7
:100CA00085919491F8018491809366029CCF14BC45
:100CB00015BC84B5826084BD85B5816085BDF101B8
:100CC0008491E82FF0E0EE0FFF1FEF58FE4F859163
:100CD0009491F801849180936D0285CF10928000E9
:100CE00010928100809181008860809381008091C2
:100CF0008100816080938100F1018491E82FF0E010
:100D0000EE0FFF1FEF58FE4F85919491F8018491EB
:100D100080936C0268CF1092B0001092B100809165
:100D2000B00082608093B0008091B10081608093B8
:100D3000B100F1018491E82FF0E0EE0FFF1FEF58B2
:100D4000FE4F8591949190936B0280936A02F80113
:100D500084918093690247CF109290001092910085
:100D600080919100886080939100809191008160D2
:100D700080939100F1018491E82FF0E0EE0FFF1FC6
:100D8000EF58FE4F85919491F80184918093680209
:100D9000C3E029CF1092A0001092A1008091A10081
:100DA00088608093A1008091A10081608093A10060
:100DB000F1018491E82FF0E0EE0FFF1FEF58FE4F96
:100DC00085919491F8018491809367020CCF85B549
:100DD000887F836085BD8CE787BD80928202909278
:100DE0008302A0928402B092850280916E0082609C
:100DF00080936E0073C0C130C1F480918100887F00
:100E0000816080938100F0928900E0928800809256
:100E10007E0290927F02A0928002B0928102809125
:100E20006F00826080936F0059C0C330C1F480911D
:100E30009100887F816080939100F0929900E09208
:100E400098008092760290927702A0927802B092F7
:100E50007902809171008260809371003FC0C4303C
:100E6000C1F48091A100887F81608093A100F092FD
:100E7000A900E092A8008092720290927302A09260
:100E80007402B09275028091720082608093720049
:100E900025C0C530C1F480912101887F8160809395
:100EA0002101F0922901E092280180926E02909235
:100EB0006F02A0927002B092710280917300826002
:100EC000809373000BC0C23009F4BAC00CF0ADC0FF
:100ED000CC2309F4B3C0C13009F495CF0E94740348
:100EE0008DE092E00E94D10268EE73E080E090E035
:100EF0000E944E020E94B1020E9474038CE192E0B3
:100F00000E94D10268EE73E080E090E00E944E0201
:100F10000E94740387E292E00E94D10260E081E0C7
:100F20000E94CA0160E082E00E94CA0161E083E0A1
:100F30000E94CA0160E084E00E94CA0160E777E194
:100F400080E090E00E944E020E94C10268EE73E0D1
:100F500080E090E00E944E020E9474038CE192E0D7
:100F60000E94D1020E94B10268EE73E080E090E03E
:100F70000E944E020E94740385E392E00E94D10217
:100F80000E94C10260ED77E080E090E00E944E0296
:100F90000E9474038CE192E00E94D1020E94B1028F
:100FA00068EE73E080E090E00E944E020E947403BD
:100FB00088E492E00E94D10261E081E00E94CA01CF
:100FC00060E082E00E94CA0160E083E00E94CA0102
:100FD00060E084E00E94CA0160E777E180E090E091
:100FE0000E944E020E9474038CE192E00E94D102A2
:100FF0000E94B10268EE73E080E090E00E944E0231
:101000000E94740385E392E00E94D1020E94C10213
:1010100068EE73E080E090E00E944E0241145104BB
:1010200009F4AECD0E940000A7CDC43009F41FCF53
:101030000CF403CFC53009F051CF33CF8FE3CCCEC2
:101040008FE3E2CD0E94740389E592E00E94D10211
:101050000E94C102E3CFEFE8F2E01382128285E042
:1010600092E09183808388E084838FEF858389E099
:1010700086838AE087838BE080878CE081878DE0A0
:1010800082871386148615861686178681E00C944F
:101090007F03EE0FFF1F881F8BBF0790F691E02D97
:0610A0001994F894FFCF43
:1010A600FF0000000032048002AE02AD024F627300
:1010B6007461636C6520636F6D653A006D6F746F64
:1010C600722073746F70006D6F76656C65667473ED
:1010D6006964653A004D6F766520666F7277617256
:1010E6006420736964653A004D6F7665207269679E
:1010F600687420736964653A000A6E6F206F6273C4
:061106007461636C6500DA
:00000001FF
