:020000040000FA
:100000000C9462000C948A000C948A000C948A0070
:100010000C948A000C948A000C948A000C948A0038
:100020000C948A000C948A000C948A000C94F503BA
:100030000C948A000C948A000C948A000C948A0018
:100040000C9453030C948A000C94C3030C949D03EA
:100050000C948A000C948A000C948A000C948A00F8
:100060000C948A000C948A000000000024002700F1
:100070002A0000000000250028002B0000000000DE
:1000800023002600290004040404040404040202DA
:100090000202020203030303030301020408102007
:1000A0004080010204081020010204081020000012
:1000B0000008000201000003040700000000000027
:1000C0000000B10411241FBECFEFD8E0DEBFCDBFCA
:1000D00011E0A0E0B1E0E0E0F0E102C005900D9297
:1000E000A036B107D9F722E0A0E6B1E001C01D9229
:1000F000AF32B207E1F710E0C2E6D0E004C02197CA
:10010000FE010E94F807C136D107C9F70E940E050B
:100110000C94FE070C940000CF92DF92EF92FF92B6
:10012000DC01A03282E0B807D4F5A53BB10514F09C
:10013000A4EBB0E040912D0228E830E0241B310907
:1001400047FD3395220F331F220F331F6901330FF1
:10015000EE08FF0840912E0228E532E0241B310909
:1001600047FD3395220F331F220F331F032E000C40
:10017000440B550B2C193D094E095F09B7FF02C00E
:10018000B0E0A0E00E94B30724EB30E040E050E094
:100190000E948907C20ED31EE41EF51ED601E0910F
:1001A0002C02EC3080F520912D0288E890E0821B33
:1001B000910927FD9395880F991F880F991FA817FC
:1001C000B90784F020912E0288E592E0821B910904
:1001D00027FD9395880F991F880F991FA817B907B6
:1001E0000CF4CD010297880F991F4FB7F8942E2F6A
:1001F00030E0F901EE0FFF1FE20FF31FE95FFD4F43
:10020000928381834FBFFF90EF90DF90CF9008954E
:10021000833081F028F4813099F08230A9F008957C
:100220008730A9F08830C9F08430B1F48091800023
:100230008F7D03C0809180008F7780938000089528
:1002400084B58F7784BD089584B58F7DFBCF809171
:10025000B0008F778093B00008958091B0008F7DBB
:10026000F9CFCF93DF93282F30E0F901E255FF4F0C
:100270008491F901E656FF4FD491F901EA57FF4FF7
:10028000C491CC23A1F081110E940801EC2FF0E071
:10029000EE0FFF1FE458FF4FA591B491EC91ED23B1
:1002A00081E090E009F480E0DF91CF91089580E053
:1002B00090E0FACF1F93CF93DF93282F30E0F9011E
:1002C000E255FF4F8491F901E656FF4FD491F901B1
:1002D000EA57FF4FC491CC23A9F0162F81110E9439
:1002E0000801EC2FF0E0EE0FFF1FEE58FF4FA59135
:1002F000B4918FB7F894EC91111108C0D095DE231A
:10030000DC938FBFDF91CF911F910895DE2BF8CF43
:10031000CF93DF9390E0FC01E656FF4F24918A577C
:100320009F4FFC0184918823D1F090E0880F991FA2
:10033000FC01E859FF4FA591B491FC01EE58FF4F25
:10034000C591D49161110EC09FB7F8948C91E22FA2
:10035000E0958E238C932881E223E8839FBFDF9171
:10036000CF9108958FB7F894EC91E22BEC938FBF67
:10037000F6CF3FB7F8948091660190916701A09104
:100380006801B091690126B5A89B05C02F3F19F0FF
:100390000196A11DB11D3FBFBA2FA92F982F882705
:1003A000BC01CD01620F711D811D911D42E0660FE0
:1003B000771F881F991F4A95D1F708958F929F92B2
:1003C000AF92BF92CF92DF92EF92FF920E94B9015B
:1003D0004B015C0184E6C82ED12CE12CF12C0E944B
:1003E000B901681979098A099B09683E734081053A
:1003F0009105A8F321E0C21AD108E108F10888EEBE
:10040000880E83E0981EA11CB11CC114D104E10424
:10041000F10429F7FF90EF90DF90CF90BF90AF905D
:100420009F908F900895AF92BF92CF92DF92EF92FC
:10043000FF920F931F93CF93DF936C017B018B018E
:10044000040F151FEB015E01AE18BF08C017D107DE
:1004500059F06991D601ED91FC910190F081E02D68
:10046000C6010995892B79F7C501DF91CF911F91BD
:100470000F91FF90EF90DF90CF90BF90AF900895D5
:10048000FC01538D448D252F30E0842F90E0821B9A
:10049000930B541710F0CF96089501970895FC011F
:1004A000918D828D981761F0A28DAE0FBF2FB11D77
:1004B0005D968C91928D9F5F9F73928F90E00895CF
:1004C0008FEF9FEF0895FC01918D828D981731F089
:1004D000828DE80FF11D858D90E008958FEF9FEFDD
:1004E0000895FC01918D228D892F90E0805C9F4FB3
:1004F000821B91098F73992708958AE691E00E94E3
:10050000710221E0892B09F420E0822F089580E018
:1005100090E0892B29F00E947D0281110C9400004B
:100520000895FC01A48DA80FB92FB11DA35ABF4F88
:100530002C91848D90E001968F739927848FA689E2
:10054000B7892C93A089B1898C91837080648C9336
:10055000938D848D981306C00288F389E02D8081E5
:100560008F7D80830895EF92FF920F931F93CF9317
:10057000DF93EC0181E0888F9B8D8C8D98131AC0DE
:10058000E889F989808185FF15C09FB7F894EE89C5
:10059000FF896083E889F989808183708064808322
:1005A0009FBF81E090E0DF91CF911F910F91FF906D
:1005B000EF900895F62E0B8D10E00F5F1F4F0F7315
:1005C0001127E02E8C8D8E110CC00FB607FCFACFD0
:1005D000E889F989808185FFF5CFCE010E949102DB
:1005E000F1CFEB8DEC0FFD2FF11DE35AFF4FF082A1
:1005F0009FB7F8940B8FEA89FB8980818062CFCF07
:10060000CF93DF93EC01888D8823B9F0AA89BB8949
:10061000E889F9898C9185FD03C0808186FD0DC034
:100620000FB607FCF7CF8C9185FFF2CF808185FF55
:10063000EDCFCE010E949102E9CFDF91CF910895D5
:1006400061E08EE00E945A0161E083E10E945A015C
:1006500060E08FE00E945A0160E080E10E945A0150
:1006600060E081E10E945A0160E082E10C945A014D
:10067000FC0101900020E9F73197AF01481B590BAD
:10068000BC018AE691E00C941302CF93DF930E94A1
:100690003803EC0182E191E00E9438038C0F9D1F2A
:1006A000DF91CF9108951F920F920FB60F921124F0
:1006B0002F933F938F939F93AF93BF93809162014A
:1006C00090916301A0916401B09165013091610145
:1006D00023E0230F2D3758F50196A11DB11D20935E
:1006E00061018093620190936301A0936401B093D0
:1006F00065018091660190916701A0916801B091B8
:1007000069010196A11DB11D809366019093670157
:10071000A0936801B0936901BF91AF919F918F91B0
:100720003F912F910F900FBE0F901F90189526E8C4
:10073000230F0296A11DB11DD2CF1F920F920FB6AB
:100740000F9211242F933F934F935F936F937F9357
:100750008F939F93AF93BF93EF93FF938AE691E0BC
:100760000E949102FF91EF91BF91AF919F918F9164
:100770007F916F915F914F913F912F910F900FBE9D
:100780000F901F9018951F920F920FB60F92112481
:100790002F938F939F93EF93FF93E0917A01F091C2
:1007A0007B018081E0918001F091810182FD1BC07D
:1007B0009081809183018F5F8F73209184018217D4
:1007C00041F0E0918301F0E0E659FE4F958F809370
:1007D0008301FF91EF919F918F912F910F900FBE09
:1007E0000F901F9018958081F4CF1F920F920FB633
:1007F0000F9211242F933F934F935F936F937F93A7
:100800008F939F93AF93BF93CF93DF93EF93FF9318
:1008100080916001C0912B02D0E087FF24C010922C
:10082000850010928400809160018F5F8093600149
:1008300080916001082E000C990B8C179D0724F401
:10084000809160018C30C4F180918400909185008A
:10085000049680349C4908F47AC080918400909179
:100860008500049676C080916001082E000C990BDB
:100870008C179D07C4F6E09160018E2FEE0F990B47
:10088000FC01EE0FFF1FE80FF91FE95FFD4F8081AC
:1008900086FFC9CFE09160018E2FEE0F990BFC010E
:1008A000EE0FFF1FE80FF91FE95FFD4F808160E049
:1008B0008F730E945A01B7CF209184003091850038
:1008C000E09160018E2FEE0F990BFC01EE0FFF1FE0
:1008D000E80FF91FE95FFD4F81819281820F931F1D
:1008E0009093890080938800E09160018E2FEE0F35
:1008F000990BFC01EE0FFF1FE80FF91FE95FFD4F99
:10090000808186FF11C0E09160018E2FEE0F990B60
:10091000FC01EE0FFF1FE80FF91FE95FFD4F80811B
:1009200061E08F730E945A01FF91EF91DF91CF91A7
:10093000BF91AF919F918F917F916F915F914F91F7
:100940003F912F910F900FBE0F901F90189580E44C
:100950009CE990938900809388008FEF80936001D9
:10096000E3CF10926D0110926C0188EE93E0A0E04D
:10097000B0E080936E0190936F01A0937001B093EB
:10098000710184E091E090936B0180936A0185ECA2
:1009900090E0909377018093760184EC90E09093BF
:1009A00079018093780180EC90E090937B018093B3
:1009B0007A0181EC90E090937D0180937C0182EC40
:1009C00090E090937F0180937E0186EC90E090937D
:1009D0008101809380011092830110928401109212
:1009E00085011092860180912B028C3098F491E061
:1009F000980F90932B0280932C0290E0FC01EE0F55
:100A0000FF1FE80FF91FE95FFD4F88EB9BE0928322
:100A1000818308958FEF80932C020895789484B594
:100A2000826084BD84B5816084BD85B5826085BDEA
:100A300085B5816085BD80916E00816080936E0078
:100A4000109281008091810082608093810080916A
:100A5000810081608093810080918000816080931B
:100A600080008091B10084608093B1008091B000DB
:100A700081608093B00080917A00846080937A00D6
:100A800080917A00826080937A0080917A00816000
:100A900080937A0080917A00806880937A00109227
:100AA000C10061E08FE00E94880161E080E10E9466
:100AB000880161E081E10E94880161E082E10E9499
:100AC000880161E08EE00E94880161E083E10E947C
:100AD000880160E083E00E94880160E084E00E9479
:100AE000880160E085E00E94880160E086E00E9465
:100AF000880161E087E00E94880160E088E00E9450
:100B0000880180912C028C3008F051C061E08AE0AD
:100B10000E94880180912C02282F30E0F901EE0F0D
:100B2000FF1FE20FF31FE95FFD4F9081907C9A60F9
:100B3000908310922D0210922E022CE0622F0E94C0
:100B4000EC07829FB001112430E020E0AB01420F9E
:100B5000531FFA01EE0FFF1FE40FF51FE95FFD4F72
:100B6000908196FD16C02F5F3F4F2C30310571F7F5
:100B700081110FC01092800082E08093810010925A
:100B8000850010928400B19A80916F0082608093FA
:100B90006F00E0912C028E2F90E0FC01EE0FFF1F02
:100BA000E80FF91FE95FFD4F8081806480838AE54B
:100BB00090E00E948C00E0917A01F0917B0182E04C
:100BC0008083E0917601F09177011082E0917801C5
:100BD000F09179018FEC808310928201E0917E0187
:100BE000F0917F0186E08083E0917C01F0917D01AE
:100BF000808180618083E0917C01F0917D01808122
:100C000088608083E0917C01F0917D018081806823
:100C10008083E0917C01F0917D0180818F7D8083D4
:100C200000E010E083E00E9431016C0184E00E944A
:100C300031017C0185E00E943101EC0186E00E94D7
:100C40003101C114D104A9F5E114F10409F067C020
:100C5000209709F048C0009709F054C085E191E061
:100C60000E9445038AE590E00E948C0061E08EE0DE
:100C70000E945A0161E083E10E945A0161E08FE025
:100C80000E945A0160E080E10E945A0161E081E126
:100C90000E945A0160E082E10E945A01011511058B
:100CA00009F20E947D02882309F4BCCF0E94000053
:100CB000B9CFCA94CD2891F7E114F10409F075C0B9
:100CC000209709F041C0009709F057C00E94200307
:100CD0008AE590E00E948C0087E291E00E94380350
:100CE0000E94DE01DBCF2197C9F6892BB9F60E945D
:100CF000200390E080E00E948C008FE291E00E944F
:100D00004503CCCF019751F60E94200384EB90E07D
:100D10000E948C008FE291E00E943803BFCFEA94DA
:100D2000EF2809F0BBCF209709F051C0009709F0D8
:100D30006BC00E9420038AE590E00E948C0081E451
:100D400091E00E944503CCCF219709F0A7CF0097EF
:100D500009F060C08FE291E00E944503CAE5D0E04F
:100D6000CE010E948C002197D9F7CE010E948C0001
:100D70002196CA35D105C9F791CF019709F08ECFD9
:100D80008FE291E00E944503CAE5D0E0CE010E94C7
:100D90008C002196C43BD105C9F7CE010E948C007E
:100DA0002197CA35D105C9F779CFEA94EF2809F020
:100DB00075CF209709F070C0009731F50E9420038D
:100DC0008AE590E00E948C0088E391E0BACF2197F9
:100DD00009F064CF009709F042C00E9420030AE5A1
:100DE00010E0C8010E948C0082E491E00E9445035B
:100DF000C4EBD0E00BE510E0CE010E948C002197FF
:100E0000CA35D105C9F7EDCF019709F047CF0E9448
:100E1000200344CF019709F041CF0E942003CAE587
:100E2000D0E0CE010E948C008FE291E00E94380356
:100E30000E94DE01F12CE12CC7010E948C0082E4AB
:100E400091E00E9445030E94DE018FEFE81AF80A44
:100E500024EBE216F10481F7219719F71FCF0197D0
:100E600009F01CCF0E942003CAE5D0E0CE010E9409
:100E70008C00F12CE12CC7010E948C0082E491E0EF
:100E80000E9445038FEFE81AF80A24EBE216F104FA
:100E900091F7219759F702CF219709F0FFCE0097DC
:100EA000D9F40E9420030AE510E0C8010E948C00DA
:100EB0008FE291E00E944503CAE5D0E003EB10E029
:100EC00082E491E00E944503CE010E948C002196AD
:100ED000C43BD105A9F7E9CF019709F0DFCE0E9405
:100EE0002003CAE5D0E0CE010E948C00F12CE12C59
:100EF000C7010E948C008BE491E00E9445038FEFB4
:100F0000E81AF80A24EBE216F10491F7219759F751
:100F1000C5CE052E97FB1EF400940E94A00757FD36
:100F200007D00E94BB0707FC03D04EF40C94A00727
:100F300050954095309521953F4F4F4F5F4F089505
:100F400090958095709561957F4F8F4F9F4F089535
:100F50000E94DD07A59F900DB49F900DA49F800D6A
:100F6000911D11240895B7FF0C94A8070E94A807AB
:100F7000821B930B0895A1E21A2EAA1BBB1BFD0135
:100F80000DC0AA1FBB1FEE1FFF1FA217B307E40768
:100F9000F50720F0A21BB30BE40BF50B661F771FC0
:100FA000881F991F1A9469F76095709580959095A0
:100FB0009B01AC01BD01CF010895A29FB001B39F79
:100FC000C001A39F700D811D1124911DB29F700D52
:100FD000811D1124911D0895991B79E004C0991F6A
:100FE000961708F0961B881F7A95C9F78095089583
:100FF000EE0FFF1F0590F491E02D0994F894FFCFB8
:1010000000000000B30213024002000371024F020D
:1010100063020D0A006E6F20666C616D6520646965
:1010200074656374656400466F72776172642070E2
:10103000756D7031206F6E0070756D703120616E4E
:10104000642070756D7032206F6E0070756D703138
:1010500020616E642070756D702032206F6E00000C
:107E0000112484B714BE81FFF0D085E080938100F7
:107E100082E08093C00088E18093C10086E0809377
:107E2000C20080E18093C4008EE0C9D0259A86E02C
:107E300020E33CEF91E0309385002093840096BBD3
:107E4000B09BFECF1D9AA8958150A9F7CC24DD24C4
:107E500088248394B5E0AB2EA1E19A2EF3E0BF2EE7
:107E6000A2D0813461F49FD0082FAFD0023811F036
:107E7000013811F484E001C083E08DD089C08234E0
:107E800011F484E103C0853419F485E0A6D080C0E4
:107E9000853579F488D0E82EFF2485D0082F10E0AE
:107EA000102F00270E291F29000F111F8ED06801E7
:107EB0006FC0863521F484E090D080E0DECF843638
:107EC00009F040C070D06FD0082F6DD080E0C81688
:107ED00080E7D80618F4F601B7BEE895C0E0D1E017
:107EE00062D089930C17E1F7F0E0CF16F0E7DF06D8
:107EF00018F0F601B7BEE89568D007B600FCFDCFD4
:107F0000A601A0E0B1E02C9130E011968C91119780
:107F100090E0982F8827822B932B1296FA010C0160
:107F200087BEE89511244E5F5F4FF1E0A038BF0790
:107F300051F7F601A7BEE89507B600FCFDCF97BE46
:107F4000E89526C08437B1F42ED02DD0F82E2BD052
:107F50003CD0F601EF2C8F010F5F1F4F84911BD097
:107F6000EA94F801C1F70894C11CD11CFA94CF0C13
:107F7000D11C0EC0853739F428D08EE10CD085E9AC
:107F80000AD08FE07ACF813511F488E018D01DD067
:107F900080E101D065CF982F8091C00085FFFCCF94
:107FA0009093C60008958091C00087FFFCCF809118
:107FB000C00084FD01C0A8958091C6000895E0E648
:107FC000F0E098E1908380830895EDDF803219F02E
:107FD00088E0F5DFFFCF84E1DECF1F93182FE3DFCA
:107FE0001150E9F7F2DF1F91089580E0E8DFEE27F6
:047FF000FF270994CA
:027FFE00040479
:00000001FF
