:100000000C943B010C946C010C946C010C946C01ED
:100010000C946C010C946C010C946C010C946C01AC
:100020000C946C010C946C010C946C010C946C019C
:100030000C946C010C946C010C946C010C946C018C
:100040000C946C010C946C010C946C010C946C017C
:100050000C946C010C946C010C946C010C94AE0625
:100060000C946C010C9478060C944E060C946C0164
:100070000C946C010C946C010C946C010C946C014C
:100080000C946C010C946C010C946C010C946C013C
:100090000C946C010C946C010C946C010C946C012C
:1000A0000C946C010C946C010C946C010C946C011C
:1000B0000C946C010C946C010C946C010C946C010C
:1000C0000C946C010C946C010C946C010C946C01FC
:1000D0000C946C010C946C010C946C010C946C01EC
:1000E0000C946C010C94FF020C9405030C9409030E
:1000F0000C948C030C942F030C942B030C94FC0293
:100100000C940F030C94B1010C9425030C940B0276
:100110000C943D070C94F4020C9458020C942103A7
:100120000C94D3010C9417030C94A2010C94F802C4
:100130000C9475010C941D030C94DE020C94F002D7
:100140000C948B030C94D9020C94D1040C941303DB
:100150000C94C50100002100240027002A002D0076
:100160003000330001010000040107010A01000012
:100170002200250028002B002E003100340002014F
:100180000000050108010B0100000A0B02090C0D1B
:100190000E0807030401000000000000000000003A
:1001A000000000000000000000000000000000004F
:1001B000000000001211100000000000000000000C
:1001C000000000000000000000000000000000002F
:1001D00020002300260029002C002F0032000001FF
:1001E00000000301060109010505050507050808CA
:1001F0000808020202020A0A0808040404040101B1
:1002000001010101010103030303030303030407C5
:1002100007070C0C0C0C0C0C0C0C0202020206065C
:100220000606060606060B0B0B0B0B0B0B0B01024F
:1002300010202008081020401020408002010201F8
:1002400008040201010204081020408080402010B0
:100250000804020180040201804020100804020109
:100260000804020101020408102040800102040871
:10027000102040803D0711241FBECFEFD1E2DEBF2A
:10028000CDBF00E00CBF12E0A0E0B2E0E4E6F7E191
:1002900000E00BBF02C007900D92A035B107D9F75F
:1002A00023E0A0E5B2E001C01D92AE30B207E1F755
:1002B00011E0CBE3D1E000E006C021970109802FD7
:1002C000FE010E94A80BCA33D10780E00807A9F7F6
:1002D0000E9487070C94B00B0C940000DC01ED9198
:1002E000FC910190F081E02D1994AF92BF92CF92D2
:1002F000DF92EF92FF920F931F93CF93DF936C01E6
:100300007B018B01040F151FEB015E01AE18BF08C6
:10031000C017D10759F06991D601ED91FC91019078
:10032000F081E02DC6011995892B79F7C501DF9180
:10033000CF911F910F91FF90EF90DF90CF90BF90E2
:10034000AF900895FC01538D448D252F30E0842F0C
:1003500090E0821B930B541710F0CF9608950197ED
:100360000895FC01918D828D981761F0A28DAE0FDA
:10037000BF2FB11D5D968C91928D9F5F9F73928F61
:1003800090E008958FEF9FEF0895FC01918D828D8D
:10039000981731F0828DE80FF11D858D90E008955A
:1003A0008FEF9FEF0895FC01918D228D892F90E0B2
:1003B000805C9F4F821B91098F739927089589E56F
:1003C00092E00E94D30121E0892B09F420E0822FE2
:1003D0000895FC01A48DA80FB92FB11DA35ABF4FDA
:1003E0002C91848D90E001968F739927848FA68934
:1003F000B7892C93A089B1898C91837080648C9388
:10040000938D848D981306C00288F389E02D808136
:100410008F7D80830895EF92FF920F931F93CF9368
:10042000DF93EC0181E0888F9B8D8C8D98131AC02F
:10043000E889F989808185FF15C09FB7F894EE8916
:10044000FF896083E889F989808183708064808373
:100450009FBF81E090E0DF91CF911F910F91FF90BE
:10046000EF900895F62E0B8D10E00F5F1F4F0F7366
:100470001127E02E8C8D8E110CC00FB607FCFACF21
:10048000E889F989808185FFF5CFCE010E94E901D5
:10049000F1CFEB8DEC0FFD2FF11DE35AFF4FF082F2
:1004A0009FB7F8940B8FEA89FB8980818062CFCF58
:1004B000CF93DF93EC01888D8823B9F0AA89BB899B
:1004C000E889F9898C9185FD03C0808186FD0DC086
:1004D0000FB607FCF7CF8C9185FFF2CF808185FFA7
:1004E000EDCFCE010E94E901E9CFDF91CF910895D0
:1004F00080E090E0892B29F00E94DF0181110E94A9
:10050000000080E090E0892B49F080E090E0892BAA
:1005100029F00E94000081110E94000080E090E01C
:10052000892B49F080E090E0892B29F00E9400009F
:1005300081110E94000080E090E0892B49F080E06A
:1005400090E0892B29F00E94000081110C9400009A
:100550000895282F30E0F901E857FE4F9491F901F2
:10056000E25DFD4F449128513E4FF9012491222331
:1005700009F435C0992311F191509231F8F4E92F23
:10058000F0E08827E953FD4F8F4F0C94A80BF80239
:10059000FC02D902F002F402DE02FF0205030903A5
:1005A0000F03130317031D032103DE0225032B038F
:1005B0002F03809180008F7780938000E22FF0E0FE
:1005C000EE0FFF1FE259FE4FA591B4918FB7F8943B
:1005D000EC91611148C040954E234C938FBF089514
:1005E000809180008F7DE8CF80918000877FE4CF6D
:1005F00084B58F7784BDE2CF84B58F7DFBCF8091AA
:10060000B0008F778093B000D9CF8091B0008F7DFC
:10061000F9CF809190008F7780939000CFCF809119
:1006200090008F7DF9CF80919000877FF5CF8091EA
:10063000A0008F778093A000C1CF8091A0008F7D14
:10064000F9CF8091A000877FF5CF809120018F772F
:1006500080932001B3CF809120018F7DF9CF8091CD
:100660002001877FF5CF4E2BB8CFCF93DF9390E05B
:10067000FC01E25DFD4F249188519E4FFC01849165
:100680008823D1F090E0880F991FFC01EC5AFE4FAF
:10069000A591B491FC01E259FE4FC591D49161112D
:1006A0000EC09FB7F8948C91E22FE0958E238C9327
:1006B0002881E223E8839FBFDF91CF9108958FB710
:1006C000F894EC91E22BEC938FBFF6CF3FB7F89400
:1006D0008091550290915602A0915702B091580214
:1006E00026B5A89B05C02F3F19F00196A11DB11D8D
:1006F0003FBFBA2FA92F982F8827BC01CD01620FC9
:10070000711D811D911D42E0660F771F881F991F83
:100710004A95D1F70895089590E080E00895CF9329
:10072000DF93EC0160E08E810E94A90261E08E817E
:100730000E94A90260E08E810E94A9028BE891E0EC
:100740000197F1F7DF91CF910895CF92DF92EF9269
:10075000FF920F931F93CF93DF936C017C0187E08F
:10076000E80EF11CD0E0C0E0062F10E0B8010C2E1E
:1007700002C0759567950A94E2F76170F70181915F
:100780007F010E94A9022196C430D10579F7C601E4
:10079000DF91CF911F910F91FF90EF90DF90CF905D
:1007A0000C948F03CF92DF92EF92FF920F931F93DF
:1007B000CF93DF93EC01F62E642F8C810E94A90267
:1007C0008D818F3F19F060E00E94A9020F2D10E08B
:1007D0008F8584FF25C06E0187E0C80ED11CF12CE7
:1007E000E12CB8010E2C02C0759567950A94E2F7CA
:1007F0006170F60181916F010E94A902FFEFEF1A6B
:10080000FF0A88E0E816F10461F7CE01DF91CF918D
:100810001F910F91FF90EF90DF90CF900C948F037A
:10082000B80184E0759567958A95E1F7CE010E943D
:10083000A5036F2DCE01DF91CF911F910F91FF90F6
:10084000EF90DF90CF900C94A50340E0682F86EFE7
:1008500092E00C94D203CF93DF93823029F49091ED
:1008600005039860909305038093090310920A038F
:1008700080E480930B0380E180930C0380E58093F8
:100880000D0361E08091FA020E9435038091FB0222
:100890008F3F19F061E00E94350361E08091FC0216
:1008A0000E943503C6EFD2E09E01265F3240809160
:1008B000050384FD0BC084E090E0219628173907DA
:1008C00044F461E08E810E943503EECF88E090E031
:1008D000F4CF8BE39DE00197F1F760E08091FA029D
:1008E0000E94A90260E08091FC020E94A90280910E
:1008F000FB028F3F19F060E00E94A902809105037E
:1009000084FD39C063E086EF92E00E94A503CBE44A
:10091000D6E4CE010197F1F763E086EF92E00E9402
:10092000A5032197F1F763E086EF92E00E94A5030B
:1009300083E592E00197F1F762E086EF92E00E9492
:10094000A5038091050380620E94250484E08093C2
:1009500006038CE00E94250481E00E9425048BE3BD
:100960009FE10197F1F782E08093070386E0DF9132
:10097000CF910C94250480620E9425048BE496E4B8
:100980000197F1F78091050380620E94250483E5B9
:1009900092E00197F1F78091050380620E9425049F
:1009A000D0CF41E00E94D20381E090E00895FB01A6
:1009B00001900020E9F73197AF01461B570BDC018E
:1009C000ED91FC910280F381E02D19948F929F921A
:1009D000AF92BF92EF92FF920F931F93CF93DF934B
:1009E000CDB7DEB7A1970FB6F894DEBF0FBECDBF6F
:1009F0007C01FA01CB0119A2223008F42AE08E0111
:100A00000F5D1F4F822E912CB12CA12CBF01A5018F
:100A100094010E94860BF901CA016A300CF5605DF1
:100A2000D8016E938D01232B242B252B79F790E091
:100A300080E0109721F0BD01C7010E94D704A19664
:100A40000FB6F894DEBF0FBECDBFDF91CF911F91DF
:100A50000F91FF90EF90BF90AF909F908F9008956F
:100A6000695CDECFCF92DF92EF92FF920F931F93DC
:100A7000CF93DF936B01770FEE08FF08F7FE1BC0E3
:100A8000EC016DE20E946E018C0144275527BA01EA
:100A90004C195D096E097F092AE0CE010E94E60427
:100AA000800F911FDF91CF911F910F91FF90EF90D9
:100AB000DF90CF9008952AE0B701A601DF91CF9192
:100AC0001F910F91FF90EF90DF90CF900C94E60470
:100AD0002F923F924F925F926F927F928F929F924E
:100AE000AF92BF92CF92DF92EF92FF921F93CF937C
:100AF000DF93EC016A017B01722EAB019601CB0101
:100B0000B6010E94810B6EE172E0811126C04601A0
:100B10005701E894B7F82FEF3FEF4FE75FE7C501C4
:100B2000B4010E94810B81110CC02FEF3FEF4FE702
:100B30005FE7C501B4010E94B00962E272E01816D5
:100B400064F02FEF3FEF4FE75FE4C701B6010E946B
:100B50000F0B1816B4F466E272E0CE01DF91CF916C
:100B60001F91FF90EF90DF90CF90BF90AF909F903C
:100B70008F907F906F905F904F903F902F900C944C
:100B8000D7042FEF3FEF4FE75FECC701B6010E949C
:100B9000B00987FDE0CF20E030E0A901C701B60130
:100BA0000E94B009312C212C87FF09C06DE2CE01D3
:100BB0000E946E011C01F7FAF094F7F8F09410E02F
:100BC00060E070E080E09FE3711641F020E030E0EB
:100BD00040E251E40E94B5091F5FF6CFA7019601DC
:100BE0000E9444092B013C010E942E0A4B015C012A
:100BF0002AE0BC01A401CE010E94E6047C01E20CC3
:100C0000F31C1123C1F1C501B4010E945D0A9B01CF
:100C1000AC01C301B2010E9443094B015C016EE2C9
:100C2000CE010E946E01E80EF91E115020F120E065
:100C300030E040E251E4C501B4010E94140B2B01E5
:100C40003C010E942E0A4B01B12CA12C2AE0B501D7
:100C5000A401CE010E94E604E80EF91EC501B4010C
:100C60000E945D0A9B01AC01C301B2010E944309CD
:100C70004B015C01DACFC701DF91CF911F91FF904B
:100C8000EF90DF90CF90BF90AF909F908F907F902C
:100C90006F905F904F903F902F9008951F920F920A
:100CA0000FB60F9211240BB60F922F933F934F93D1
:100CB0005F936F937F938F939F93AF93BF93EF93C4
:100CC000FF9389E592E00E94E901FF91EF91BF91C6
:100CD000AF919F918F917F916F915F914F913F91D4
:100CE0002F910F900BBE0F900FBE0F901F90189575
:100CF0001F920F920FB60F9211240BB60F922F93E3
:100D00008F939F93EF93FF93E0916902F0916A02B2
:100D10008081E0916F02F091700282FD1DC0908190
:100D2000809172028F5F8F7320917302821741F05E
:100D3000E0917202F0E0E75AFD4F958F80937202C6
:100D4000FF91EF919F918F912F910F900BBE0F907C
:100D50000FBE0F901F9018958081F2CF1F920F92B7
:100D60000FB60F9211242F933F938F939F93AF93BE
:100D7000BF938091510290915202A0915302B09181
:100D800054023091500223E0230F2D3758F501967D
:100D9000A11DB11D209350028093510290935202E5
:100DA000A0935302B0935402809155029091560241
:100DB000A0915702B09158020196A11DB11D8093D8
:100DC000550290935602A0935702B0935802BF91D8
:100DD000AF919F918F913F912F910F900FBE0F90E8
:100DE0001F90189526E8230F0296A11DB11DD2CFA2
:100DF000CF92DF92EF92FF920F931F93E82FF92F7C
:100E000005C0015011092109310961F19081962332
:100E10009417B9F305C0015011092109310911F1E5
:100E2000908196239413F7CFC12CD12CE12CF12C77
:100E30000AC08FEFC81AD80AE80AF80A0C151D056F
:100E40002E053F0579F080818623841791F36C2D60
:100E50007D2D8E2D9F2D1F910F91FF90EF90DF9094
:100E6000CF90089560E070E080E090E01F910F91D6
:100E7000FF90EF90DF90CF900895E9E5F2E01382C4
:100E8000128288EE93E0A0E0B0E084839583A6838D
:100E9000B78384E092E09183808385EC90E095872E
:100EA000848784EC90E09787868780EC90E0918B34
:100EB000808B81EC90E0938B828B82EC90E0958B21
:100EC000848B86EC90E0978B868B118E128E138E1E
:100ED000148EE6EFF2E01382128286E192E09183B3
:100EE000808388E084838FEF858389E086838AE02E
:100EF00087838BE080878CE081878DE082871386F3
:100F0000148615861686178681E00C942B04789437
:100F100084B5826084BD84B5816084BD85B58260FE
:100F200085BD85B5816085BD80916E0081608093AF
:100F30006E00109281008091810082608093810018
:100F40008091810081608093810080918000816028
:100F5000809380008091B10084608093B100809183
:100F6000B00081608093B000809191008260809396
:100F70009100809191008160809391008091900018
:100F80008160809390008091A10082608093A10095
:100F90008091A10081608093A1008091A000816078
:100FA0008093A00080912101826080932101809133
:100FB00021018160809321018091200181608093D3
:100FC000200180917A00846080937A0080917A0079
:100FD000826080937A0080917A00816080937A00A9
:100FE00080917A00806880937A001092C10061E05D
:100FF00082E00E94350360E083E00E94350382E0D6
:101000000E942B04E0916902F0916A0282E08083E1
:10101000E0916502F09166021082E0916702F09122
:1010200068028FEC808310927102E0916D02F09162
:101030006E0286E08083E0916B02F0916C02808109
:1010400080618083E0916B02F0916C028081886006
:101050008083E0916B02F0916C02808180688083D4
:10106000E0916B02F0916C0280818F7D808323E29E
:10107000222E312CCBE3DFE160E082E00E94A90266
:1010800083E090E00197F1F761E082E00E94A9021D
:10109000C1010197F1F760E082E00E94A902E1E35B
:1010A000F2E06491EBEEF1E08491E82FF0E0EE0FD6
:1010B000FF1FE253FE4F8591949100E412E42FE06C
:1010C00030E0462F0E94F8066B017C01C114D10468
:1010D000E104F10439F0FFEFCF1ADF0AEF0AFF0A4B
:1010E0002FE0F2220E9466032B013C0188EE882E3D
:1010F00083E0982EA12CB12C0E9466036419750917
:1011000086099709683E734081059105A8F381E03F
:10111000881A9108A108B108E8EE4E0EE3E05E1EC1
:10112000611C711C81149104A104B10429F7C70149
:10113000B6010E945F0A26E933E44BE05DE30E94BA
:10114000140B20E030E040E05FE30E94140B0E94AB
:10115000270A6B01072E000C880B990B0E945F0A6F
:101160004B015C012CE033E949EC5EE30E94140B77
:101170002B013C012BE439E546E05DE3C501B401F8
:101180000E94140B4B015C016AE272E089E592E077
:101190000E94D70469E372E089E592E00E94D704D7
:1011A0006CE372E089E592E00E94D70469E372E0A3
:1011B00089E592E00E94D704B60189E592E00E9499
:1011C00032056DE472E089E592E00E94D70422E0E6
:1011D000B301A20189E592E00E9468056DE472E026
:1011E00089E592E00E94D70422E0B501A40189E5D7
:1011F00092E00E9468056DE472E089E592E00E9449
:10120000D70481E00E942504CE010197F1F76CE339
:1012100072E086EF92E00E94D704E0910903E23089
:1012200080F5E150F0E0EA50FD4F848980680E942B
:101230002504B60186EF92E00E9432056DE472E06B
:1012400086EF92E00E94D70422E0B301A20186EF6C
:1012500092E00E9468056DE472E086EF92E00E94E1
:10126000D70422E0B501A40186EF92E00E94680550
:101270006DE472E086EF92E00E94D7040E9478024B
:10128000FBCEE1E0CFCF5058BB27AA270E945B09D5
:101290000C94D50A0E94C70A38F00E94CE0A20F0AA
:1012A00039F49F3F19F426F40C94C40A0EF4E09527
:1012B000E7FB0C94BE0AE92F0E94E60A58F3BA171E
:1012C000620773078407950720F079F4A6F50C945C
:1012D000080B0EF4E0950B2EBA2FA02D0B01B901CF
:1012E00090010C01CA01A0011124FF27591B99F09C
:1012F000593F50F4503E68F11A16F040A22F232FA8
:10130000342F4427585FF3CF469537952795A795F7
:10131000F0405395C9F77EF41F16BA0B620B730B9E
:10132000840BBAF09150A1F0FF0FBB1F661F771F0F
:10133000881FC2F70EC0BA0F621F731F841F48F4C4
:10134000879577956795B795F7959E3F08F0B0CF4D
:101350009395880F08F09927EE0F97958795089534
:101360000E949A0A08F481E008950E94C9090C9429
:10137000D50A0E94CE0A58F00E94C70A40F029F40C
:101380005F3F29F00C94BE0A51110C94090B0C9488
:10139000C40A0E94E60A68F39923B1F3552391F336
:1013A000951B550BBB27AA2762177307840738F0D4
:1013B0009F5F5F4F220F331F441FAA1FA9F335D031
:1013C0000E2E3AF0E0E832D091505040E695001CE5
:1013D000CAF72BD0FE2F29D0660F771F881FBB1F9F
:1013E000261737074807AB07B0E809F0BB0B802D7D
:1013F000BF01FF2793585F4F3AF09E3F510578F0A9
:101400000C94BE0A0C94090B5F3FE4F3983ED4F3AE
:10141000869577956795B795F7959F5FC9F7880F7C
:10142000911D9695879597F90895E1E0660F771FCE
:10143000881FBB1F621773078407BA0720F0621B5F
:10144000730B840BBA0BEE1F88F7E09508950E948A
:101450002E0A6894B1110C94090B08950E94EE0AAB
:1014600088F09F5798F0B92F9927B751B0F0E1F065
:10147000660F771F881F991F1AF0BA95C9F714C015
:10148000B13091F00E94080BB1E008950C94080B64
:10149000672F782F8827B85F39F0B93FCCF386954E
:1014A00077956795B395D9F73EF4909580957095AB
:1014B00061957F4F8F4F9F4F0895E89409C097FB28
:1014C0003EF490958095709561957F4F8F4F9F4F1B
:1014D0009923A9F0F92F96E9BB279395F69587955F
:1014E00077956795B795F111F8CFFAF4BB0F11F422
:1014F00060FF1BC06F5F7F4F8F4F9F4F16C08823C9
:1015000011F096E911C0772321F09EE8872F762FFE
:1015100005C0662371F096E8862F70E060E02AF03F
:101520009A95660F771F881FDAF7880F969587952B
:1015300097F90895990F0008550FAA0BE0E8FEEF00
:1015400016161706E807F907C0F012161306E40787
:10155000F50798F0621B730B840B950B39F40A2680
:1015600061F0232B242B252B21F408950A2609F45E
:10157000A140A6958FEF811D811D089597F99F6762
:1015800080E870E060E008959FEF80EC089500240B
:101590000A941616170618060906089500240A94D8
:1015A00012161306140605060895092E0394000C5E
:1015B00011F4882352F0BB0F40F4BF2B11F460FFED
:1015C00004C06F5F7F4F8F4F9F4F089557FD905816
:1015D000440F551F59F05F3F71F04795880F97FBF7
:1015E000991F61F09F3F79F08795089512161306B1
:1015F0001406551FF2CF4695F1DF08C016161706E0
:101600001806991FF1CF8695710561050894089514
:10161000E894BB2766277727CB0197F908950E94A6
:101620009A0A08F48FEF08950E94270B0C94D50AAC
:101630000E94C70A38F00E94CE0A20F0952311F0CC
:101640000C94BE0A0C94C40A11240C94090B0E9439
:10165000E60A70F3959FC1F3950F50E0551F629F06
:10166000F001729FBB27F00DB11D639FAA27F00DFB
:10167000B11DAA1F649F6627B00DA11D661F829F22
:101680002227B00DA11D621F739FB00DA11D621F07
:10169000839FA00D611D221F749F3327A00D611D24
:1016A000231F849F600D211D822F762F6A2F112406
:1016B0009F5750409AF0F1F088234AF0EE0FFF1F39
:1016C000BB1F661F771F881F91505040A9F79E3F90
:1016D000510580F00C94BE0A0C94090B5F3FE4F3B3
:1016E000983ED4F3869577956795B795F795E795E6
:1016F0009F5FC1F7FE2B880F911D9695879597F9EF
:1017000008950E949A0A880B990B0895A1E21A2E57
:10171000AA1BBB1BFD010DC0AA1FBB1FEE1FFF1F95
:10172000A217B307E407F50720F0A21BB30BE40BE5
:10173000F50B661F771F881F991F1A9469F760952C
:101740007095809590959B01AC01BD01CF010895E6
:10175000EE0FFF1F881F8BBF0790F691E02D1994A5
:04176000F894FFCF2B
:10176400000000000B027501A2015802D301B1016F
:10177400C50100000000D10475018C038B036E6168
:101784006E00696E66006F76660044697374616EFC
:10179400636520496E203A20000D0A00636D20091C
:1017A40020696E6368200920666F6F740009000069
:00000001FF
