:100000000C9435010C9466010C9466010C94660105
:100010000C9466010C9466010C9466010C946601C4
:100020000C9466010C9466010C9466010C946601B4
:100030000C9466010C9466010C9466010C946601A4
:100040000C9466010C9466010C9466010C94660194
:100050000C9466010C9466010C9466010C948B035D
:100060000C9466010C94FF030C94D5030C94660168
:100070000C9466010C9466010C9466010C94660164
:100080000C9466010C9466010C9466010C94660154
:100090000C9466010C9466010C9466010C94660144
:1000A0000C9466010C9466010C9466010C94660134
:1000B0000C9466010C9466010C9466010C94660124
:1000C0000C9466010C9466010C9466010C94660114
:1000D0000C9466010C9466010C9466010C94660104
:1000E0000C9466010C94C6010C94D5020C94CC02BD
:1000F0000C94CF020C94E3020C94ED020C94F102E8
:100100000C94BA020C9495010C94FE010C944B02D1
:100110000C9468010C94FF020C94E7020C94FB020F
:100120000C94D9020C94B8010C943A050C94DF029B
:100130000C94FA020C94F5020C94C0020C94C402C4
:100140000C94A4010C94C802000021002400270094
:100150002A002D00300033000101000004010701D6
:100160000A0100002200250028002B002E0031008B
:10017000340002010000050108010B01000020000D
:100180002300260029002C002F003200000100006F
:10019000030106010901050505050705080808080A
:1001A000020202020A0A080804040404010101010F
:1001B000010101010303030303030303040707070A
:1001C0000C0C0C0C0C0C0C0C0202020206060606AF
:1001D000060606060B0B0B0B0B0B0B0B010210207C
:1001E000200808102040102040800201020108046D
:1001F0000201010204081020408080402010080401
:100200000201800402018040201008040201080459
:10021000020101020408102040800102040810209D
:10022000408000000A0B02090C0D0E0807030401B0
:1002300000000000000000000000000000000000BE
:10024000000000000000000000000000000012118B
:10025000100000000000000000000000000000008E
:1002600000000000000000003A0511241FBECFEF7F
:10027000D1E2DEBFCDBF00E00CBF12E0A0E0B2E0F3
:10028000E2EEFAE000E00BBF02C007900D92AA3246
:10029000B107D9F722E0AAE2B2E001C01D92A03D69
:1002A000B207E1F711E0C5E3D1E000E006C0219715
:1002B0000109802FFE010E946705C433D10780E049
:1002C0000807A9F70E9435040C946F050C940000F0
:1002D000AF92BF92CF92DF92EF92FF920F931F9354
:1002E000CF93DF936C017B018B01040F151FEB0192
:1002F0005E01AE18BF08C017D10759F06991D60149
:10030000ED91FC910190F081E02DC6011995892BAA
:1003100079F7C501DF91CF911F910F91FF90EF9079
:10032000DF90CF90BF90AF900895FC01538D448D26
:10033000252F30E0842F90E0821B930B541710F090
:10034000CF96089501970895FC01918D828D98179D
:1003500061F0A28DAE0FBF2FB11D5D968C91928D75
:100360009F5F9F73928F90E008958FEF9FEF0895A6
:10037000FC01918D828D981731F0828DE80FF11D6F
:10038000858D90E008958FEF9FEF0895FC01918D8A
:10039000228D892F90E0805C9F4F821B91098F7383
:1003A000992708958AE292E00E94C60121E0892BF4
:1003B00009F420E0822F0895FC01A48DA80FB92F25
:1003C000B11DA35ABF4F2C91848D90E001968F737D
:1003D0009927848FA689B7892C93A089B1898C919C
:1003E000837080648C93938D848D981306C00288EB
:1003F000F389E02D80818F7D80830895EF92FF92B5
:100400000F931F93CF93DF93EC0181E0888F9B8D37
:100410008C8D98131AC0E889F989808185FF15C0F1
:100420009FB7F894EE89FF896083E889F989808114
:100430008370806480839FBF81E090E0DF91CF91E3
:100440001F910F91FF90EF900895F62E0B8D10E005
:100450000F5F1F4F0F731127E02E8C8D8E110CC074
:100460000FB607FCFACFE889F989808185FFF5CFBF
:10047000CE010E94DC01F1CFEB8DEC0FFD2FF11DC1
:10048000E35AFF4FF0829FB7F8940B8FEA89FB89FC
:1004900080818062CFCFCF93DF93EC01888D88235A
:1004A000B9F0AA89BB89E889F9898C9185FD03C0D7
:1004B000808186FD0DC00FB607FCF7CF8C9185FFBC
:1004C000F2CF808185FFEDCFCE010E94DC01E9CF24
:1004D000DF91CF91089580E090E0892B29F00E9470
:1004E000D20181110E94000080E090E0892B49F048
:1004F00080E090E0892B29F00E94000081110E9489
:10050000000080E090E0892B49F080E090E0892BAA
:1005100029F00E94000081110E94000080E090E01C
:10052000892B49F080E090E0892B29F00E9400009F
:1005300081110C94000008958150823108F05AC056
:10054000E82FF0E08827E855FD4F8F4F0C946705A2
:10055000C802CC02BA02C002C402FA02CF02D5021B
:10056000D902DF02E302E702ED02F102FA02F5022C
:10057000FB02FF02809180008F77809380000895B6
:10058000809180008F7DF9CF80918000877FF5CFAB
:1005900084B58F7784BD089584B58F7DFBCF80911E
:1005A000B0008F778093B00008958091B0008F7D68
:1005B000F9CF809190008F7780939000089580917B
:1005C00090008F7DF9CF80919000877FF5CF80914B
:1005D000A0008F778093A00008958091A0008F7D68
:1005E000F9CF8091A000877FF5CF809120018F7790
:1005F000809320010895809120018F7DF9CF809113
:100600002001877FF5CFCF93DF93282F30E0F901CA
:10061000EE5DFD4F8491F901E452FE4FD491F90152
:10062000EA56FE4FC491CC23A1F081110E949C0296
:10063000EC2FF0E0EE0FFF1FE458FE4FA591B491B0
:10064000EC91ED2381E090E009F480E0DF91CF911F
:10065000089580E090E0FACF1F93CF93DF93282F87
:1006600030E0F901EE5DFD4F8491F901E452FE4F57
:10067000D491F901EA56FE4FC491CC23A9F0162F6C
:1006800081110E949C02EC2FF0E0EE0FFF1FEE594B
:10069000FE4FA591B4918FB7F894EC91111108C059
:1006A000D095DE23DC938FBFDF91CF911F9108950A
:1006B000DE2BF8CFCF93DF9390E0FC01E452FE4FA6
:1006C00024918A569E4FFC0184918823D1F090E0BA
:1006D000880F991FFC01E85BFE4FA591B491FC01C6
:1006E000EE59FE4FC591D49161110EC09FB7F89499
:1006F0008C91E22FE0958E238C932881E223E8836E
:100700009FBFDF91CF9108958FB7F894EC91E22BC2
:10071000EC938FBFF6CF1F920F920FB60F9211245A
:100720002F933F938F939F93AF93BF938091CC026E
:100730009091CD02A091CE02B091CF023091CB0228
:1007400023E0230F2D3758F50196A11DB11D2093ED
:10075000CB028093CC029093CD02A093CE02B093B3
:10076000CF028091C7029091C802A091C902B091B6
:10077000CA020196A11DB11D8093C7029093C802C1
:10078000A093C902B093CA02BF91AF919F918F917C
:100790003F912F910F900FBE0F901F90189526E854
:1007A000230F0296A11DB11DD2CF1F920F920FB63B
:1007B0000F9211240BB60F922F933F934F935F9399
:1007C0006F937F938F939F93AF93BF93EF93FF9319
:1007D0008AE292E00E94DC01FF91EF91BF91AF911C
:1007E0009F918F917F916F915F914F913F912F9149
:1007F0000F900BBE0F900FBE0F901F9018951F9279
:100800000F920FB60F9211240BB60F922F938F9366
:100810009F93EF93FF93E0913A02F0913B02808126
:10082000E0914002F091410282FD1DC090818091D3
:1008300043028F5F8F7320914402821741F0E09151
:100840004302F0E0E65DFD4F958F80934302FF91F8
:10085000EF919F918F912F910F900BBE0F900FBE34
:100860000F901F9018958081F2CF789484B58260A4
:1008700084BD84B5816084BD85B5826085BD85B544
:10088000816085BD80916E00816080936E001092C2
:10089000810080918100826080938100809181003D
:1008A00081608093810080918000816080938000CE
:1008B0008091B10084608093B1008091B00081602C
:1008C0008093B0008091910082608093910080912C
:1008D000910081608093910080919000816080936D
:1008E00090008091A10082608093A1008091A1007E
:1008F00081608093A1008091A00081608093A0001E
:100900008091210182608093210180912101816089
:10091000809321018091200181608093200180914A
:100920007A00846080937A0080917A00826080935C
:100930007A0080917A00816080937A0080917A00B9
:10094000806880937A001092C10060E081E00E948C
:100950005A0360E082E00E945A0360E083E00E9454
:100960005A0361E084E00E945A0361E085E00E943E
:100970005A0361E086E00E945A03E0913A02F09146
:100980003B0282E08083E0913602F09137021082D0
:10099000E0913802F09139028FEC8083109242028C
:1009A000E0913E02F0913F0286E08083E0913C02BC
:1009B000F0913D02808180618083E0913C02F09162
:1009C0003D02808188608083E0913C02F0913D028D
:1009D000808180688083E0913C02F0913D028081BB
:1009E0008F7D808381E00E9403038C0182E00E945E
:1009F0000303EC0183E00E9403030130110549F574
:100A0000209789F4892B29F561E084E00E942C036A
:100A100060E085E00E942C0360E086E00E942C03E9
:100A20000E946B02DFCF2197A1F4009731F460E0C0
:100A300084E00E942C0361E0ECCF019751F460E068
:100A400084E00E942C0360E085E00E942C0361E0BA
:100A5000E4CF43E150E062E172E08AE292E00E947A
:100A6000680142E050E066E272E08AE292E00E94B1
:100A70006801D6CFEAE2F2E01382128288EE93E0B8
:100A8000A0E0B0E084839583A683B78384E092E0FE
:100A90009183808385EC90E09587848784EC90E057
:100AA0009787868780EC90E0918B808B81EC90E03B
:100AB000938B828B82EC90E0958B848B86EC90E01C
:100AC000978B868B118E128E138E148E0895EE0FD7
:100AD000FF1F881F8BBF0790F691E02D1994F894A3
:020AE000FFCF46
:100AE20000000000FE01680195014B02C601A4014D
:100AF200B801416C6C20427574746F6E7320417240
:0A0B020065204F4646000D0A000072
:00000001FF
